:100000000C9438000C9455000C9455000C94550039
:100010000C9455000C9455000C9455000C9455000C
:100020000C9455000C9455000C9455000C945500FC
:100030000C9455000C9455000C9455000C945500EC
:100040000C9455000C9455000C9455000C945500DC
:100050000C9455000C9455000C9455000C945500CC
:100060000C9455000C9455000C9455000C945500BC
:1000700011241FBECFEFD4E0DEBFCDBF11E0A0E062
:10008000B1E0EEE9FCE002C005900D92A03FB1079F
:10009000D9F721E0A0EFB1E001C01D92AA3FB2075D
:1000A000E1F70E9457000C944D060C9400008FE17C
:1000B00090E00E94F8000E9400010E9464000E94EB
:1000C0006B0080E090E0089585B7806885BF80B7B9
:1000D000806280BF0895CF92DF92EF92FF920F93DC
:1000E0001F93CF93DF938AE091E00E94C4010E94A6
:1000F00055016C010E945A01C0E0D0E000E010E020
:100100000F2EF0E2EF2EF1E0FF2EF02D0E945501B0
:10011000FE01F85E808320812817A9F099279F931C
:100120008F931F922F93DF93CF93FF92EF920E94B2
:10013000B0010F5F1F4F8DB79EB708960FB6F894AA
:100140009EBF0FBE8DBF2196C11598E0D907F1F66D
:10015000C6010E945A01C0E0D0E0E12CF12C0F2E24
:10016000F9E5CF2EF1E0DF2EF02D0E945501FE01C2
:10017000F85E20812817B1F099279F938F931F92E3
:100180002F93DF93CF93DF92CF920E94B0018FEF36
:10019000E81AF80A8DB79EB708960FB6F8949EBF76
:1001A0000FBE8DBF2196C11598E0D907F1F6FF92D9
:1001B000EF921F930F9386E991E09F938F930E9494
:1001C000B0010F900F900F900F900F900F90DF9154
:1001D000CF911F910F91FF90EF90DF90CF900895F6
:1001E0005F9BFECF8CB108955D9BFECF8CB90895C7
:1001F00089B988E18AB98EE880BD80B510BC0895C0
:1002000060EF70E084EF90E00E94650108958F92A6
:100210009F92AF92BF92CF92DF92EF92FF92CF93D5
:10022000DF93EC01688179818A819B816115710579
:100230008105910521F464E279ED8BE597E02DE1EC
:1002400033EF41E050E00E94B30549015A019B01A0
:10025000AC01A7EAB1E40E94D2056B017C01ACEECF
:10026000B4EFA50194010E94E005C60ED71EE81E5A
:10027000F91EF7FE06C081E0C81AD108E10880E83F
:10028000F80AC882D982EA82FB82C6019F77DF9191
:10029000CF91FF90EF90DF90CF90BF90AF909F9065
:1002A0008F9008950E940701089580E091E00E94D8
:1002B00007010895A0E0B0E0809300019093010150
:1002C000A0930201B093030108950F931F93CF935E
:1002D000DF93EC018B01009731F46115710519F47E
:1002E00080E090E038C06EE070E081E090E00E9435
:1002F000C303FC010097A1F380E883830115110576
:1003000071F01387028781E883838091F0019091D7
:10031000F101892B21F4F093F101E093F001209792
:10032000C9F0D187C0878381826083838091F20185
:100330009091F301892B71F4F093F301E093F201B2
:100340008091F4019091F501892B21F4F093F5014E
:10035000E093F401CF01DF91CF911F910F910895A8
:10036000A0E0B0E0E6EBF1E00C94F505FE01359677
:1003700061917191AF018091F2019091F3010E941E
:10038000F101E2E00C9411060F931F93CF93DF93DA
:10039000E091F201F091F301238121FF1BC0EC01F8
:1003A00000E010E089916091F2017091F301DB01AE
:1003B0001896ED91FC911997882331F00995892BB6
:1003C00089F30FEF1FEFEECF8AE00995892B11F427
:1003D000C80102C08FEF9FEFDF91CF911F910F9166
:1003E0000895ACE0B0E0E7EFF1E00C94E5057C01A6
:1003F0006B018A01FC0117821682838181FFBDC1D6
:10040000CE0101964C01F7019381F60193FD859190
:1004100093FF81916F01882309F4ABC1853239F4D0
:1004200093FD859193FF81916F01853229F4B70186
:1004300090E00E942305E7CF512C312C20E02032A0
:10044000A0F48B3269F030F4803259F0833269F4D1
:1004500020612CC08D3239F0803339F4216026C000
:100460002260246023C0286021C027FD27C030ED12
:10047000380F3A3078F426FF06C0FAE05F9E300D60
:100480001124532E13C08AE0389E300D1124332ED0
:1004900020620CC08E3221F426FD6BC1206406C0A0
:1004A0008C3611F4206802C0883641F4F60193FDC1
:1004B000859193FF81916F018111C1CF982F9F7D0D
:1004C0009554933028F40C5F1F4FFFE3F9830DC060
:1004D000833631F0833771F0833509F05BC022C079
:1004E000F801808189830E5F1F4F44244394512C6F
:1004F000540115C03801F2E06F0E711CF801A080A4
:10050000B18026FF03C0652D70E002C06FEF7FEF62
:10051000C5012C870E9418052C0183012C852F779B
:10052000222E17C03801F2E06F0E711CF801A08076
:10053000B18026FF03C0652D70E002C06FEF7FEF32
:10054000C5012C870E9406052C012C852068222ECF
:10055000830123FC1BC0832D90E048165906B0F49C
:10056000B70180E290E00E9423053A94F4CFF501B0
:1005700027FC859127FE81915F01B70190E00E94E1
:10058000230531103A94F1E04F1A510841145104F7
:1005900071F7E5C0843611F0893639F5F80127FF87
:1005A00007C060817181828193810C5F1F4F08C0F9
:1005B00060817181882777FD8095982F0E5F1F4F8E
:1005C0002F76B22E97FF09C0909580957095619512
:1005D0007F4F8F4F9F4F2068B22E2AE030E0A4015A
:1005E0000E945505A82EA81844C0853729F42F7EEF
:1005F000B22E2AE030E025C0F22FF97FBF2E8F36D1
:10060000C1F018F4883579F0B4C0803719F0883714
:1006100021F0AFC02F2F2061B22EB4FE0DC08B2D64
:100620008460B82E09C024FF0AC09F2F9660B92E9F
:1006300006C028E030E005C020E130E002C020E143
:1006400032E0F801B7FE07C0608171818281938139
:100650000C5F1F4F06C06081718180E090E00E5FEB
:100660001F4FA4010E945505A82EA818FB2DFF7747
:10067000BF2EB6FE0BC02B2D2E7FA51450F4B4FE5A
:100680000AC0B2FC08C02B2D2E7E05C07A2C2B2D63
:1006900003C07A2C01C0752C24FF0DC0FE01EA0DA9
:1006A000F11D8081803311F4297E09C022FF06C02C
:1006B0007394739404C0822F867809F0739423FD99
:1006C00013C020FF06C05A2C731418F4530C57188B
:1006D000732C731468F4B70180E290E02C870E94B9
:1006E000230573942C85F5CF731410F4371801C0CB
:1006F000312C24FF12C0B70180E390E02C870E94C8
:1007000023052C8522FF17C021FF03C088E590E058
:1007100002C088E790E0B7010CC0822F867859F0BC
:1007200021FD02C080E201C08BE227FD8DE2B7010E
:1007300090E00E942305A51438F4B70180E390E00F
:100740000E9423055A94F7CFAA94F401EA0DF11DF3
:100750008081B70190E00E942305A110F5CF3320DE
:1007600009F451CEB70180E290E00E9423053A944B
:10077000F6CFF7018681978102C08FEF9FEF2C960D
:10078000E2E10C9401060F931F93CF93DF93869FB2
:100790008001879F100D969F100D1124C8010E94A3
:1007A000DF03EC01009729F0A80160E070E00E94EF
:1007B0001105CE01DF91CF911F910F910895CF9335
:1007C000DF938230910510F482E090E0E091F8012F
:1007D000F091F90120E030E0A0E0B0E0309739F18D
:1007E0004081518148175907B8F04817590771F4EB
:1007F00082819381109729F013969C938E93129780
:100800002CC09093F9018093F80127C02115310580
:1008100031F04217530718F0A901DB0101C0EF01C5
:100820009A01BD01DF010280F381E02DD7CF2115B0
:100830003105F9F0281B390B2430310580F48A8109
:100840009B816115710521F0FB019383828304C0B4
:100850009093F9018093F801FE01329644C0FE01A5
:10086000E20FF31F8193919322503109398328833A
:100870003AC02091F6013091F701232B41F42091E9
:100880000601309107013093F7012093F601209182
:100890000401309105012115310541F42DB73EB712
:1008A0004091080150910901241B350BE091F6019C
:1008B000F091F701E217F307A0F42E1B3F0B281766
:1008C000390778F0AC014E5F5F4F2417350748F0C9
:1008D0004E0F5F1F5093F7014093F6018193919360
:1008E00002C0E0E0F0E0CF01DF91CF910895CF9317
:1008F000DF93009709F487C0FC01329713821282BC
:10090000C091F801D091F901209781F420813181C3
:10091000280F391F8091F6019091F70182179307F4
:1009200079F5F093F701E093F6016DC0DE0120E068
:1009300030E0AE17BF0750F412964D915C911397BB
:100940009D014115510509F1DA01F3CFB383A2836B
:1009500040815181840F951F8A179B0771F48D91F7
:100960009C911197840F951F029691838083129614
:100970008D919C911397938382832115310529F4DE
:10098000F093F901E093F8013EC0D9011396FC936E
:10099000EE9312974D915D91A40FB51FEA17FB07D7
:1009A00079F480819181840F951F0296D901119667
:1009B0009C938E938281938113969C938E9312972E
:1009C000E0E0F0E08A819B81009719F0FE01EC01E4
:1009D000F9CFCE01029628813981820F931F209191
:1009E000F6013091F7012817390769F4309729F497
:1009F0001092F9011092F80102C013821282D09372
:100A0000F701C093F601DF91CF910895FC010590A5
:100A1000615070400110D8F7809590958E0F9F1F00
:100A20000895DC0101C06D9341505040E0F70895F6
:100A3000FC016150704001900110D8F780959095AD
:100A40008E0F9F1F08950F931F93CF93DF93182F3F
:100A5000092FEB018B8181FD03C08FEF9FEF20C039
:100A600082FF10C04E815F812C813D814217530768
:100A70007CF4E881F9819F012F5F3F4F3983288300
:100A8000108306C0E885F985812F0995892B29F700
:100A90002E813F812F5F3F4F3F832E83812F902FE9
:100AA000DF91CF911F910F910895FA01AA27283065
:100AB00051F1203181F1E8946F936E7F6E5F7F4F2B
:100AC0008F4F9F4FAF4FB1E03ED0B4E03CD0670FA7
:100AD000781F891F9A1FA11D680F791F8A1F911DFA
:100AE000A11D6A0F711D811D911DA11D20D009F44A
:100AF00068943F912AE0269F11243019305D31938C
:100B0000DEF6CF010895462F4770405D4193B3E074
:100B10000FD0C9F7F6CF462F4F70405D4A3318F01B
:100B2000495D31FD4052419302D0A9F7EACFB4E0CC
:100B3000A6959795879577956795BA95C9F7009784
:100B40006105710508959B01AC010A2E0694579525
:100B5000479537952795BA95C9F7620F731F841F7C
:100B6000951FA01D0895052E97FB1EF400940E946A
:100B7000CA0557FD07D00E941C0607FC03D04EF49F
:100B80000C94CA0550954095309521953F4F4F4F95
:100B90005F4F089590958095709561957F4F8F4F29
:100BA0009F4F08950E943E06A59F900DB49F900D03
:100BB000A49F800D911D11240895B7FF0C94D205B8
:100BC0000E94D205821B930B08952F923F924F9261
:100BD0005F926F927F928F929F92AF92BF92CF92CD
:100BE000DF92EF92FF920F931F93CF93DF93CDB7D6
:100BF000DEB7CA1BDB0B0FB6F894DEBF0FBECDBF4E
:100C000009942A88398848885F846E847D848C841E
:100C10009B84AA84B984C884DF80EE80FD800C8127
:100C20001B81AA81B981CE0FD11D0FB6F894DEBF0A
:100C30000FBECDBFED010895A1E21A2EAA1BBB1B6A
:100C4000FD010DC0AA1FBB1FEE1FFF1FA217B30798
:100C5000E407F50720F0A21BB30BE40BF50B661FAE
:100C6000771F881F991F1A9469F760957095809572
:100C700090959B01AC01BD01CF010895A29FB001E9
:100C8000B39FC001A39F700D811D1124911DB29FC0
:0E0C9000700D811D1124911D0895F894FFCF61
:100C9E00010000000000FA012000537461727469B3
:100CAE006E67205352414D20746573742E2E2E00A4
:100CBE005772697465207068617365206572726F12
:100CCE00723A2065787452616D5B2534645D203D07
:100CDE002025303258202873686F756C6420626549
:100CEE00202530325829200A0052657472696576C3
:100CFE00616C207068617365206572726F723A2044
:100D0E0065787452616D5B2534645D203D2025301D
:100D1E003258202873686F756C6420626520253008
:100D2E00325829200A005352414D207465737420A5
:100D3E00636F6D706C657465642077697468200AE2
:100D4E00253464206572726F727320696E2077721B
:100D5E0069746520706861736520616E64200A2570
:100D6E003464206572726F727320696E20726574BE
:100D7E0072696576616C207068617365200A0A007D
:00000001FF
