S01200004279676765726E4752312E737265637A
S11300000C94F6000C9415010C944E020C941301FC
S11300100C9413010C9413010C9413010C9413010C
S11300200C9413010C9413010C9413010C941301FC
S11300300C9413010C9413010C9413010C941301EC
S11300400C9413010C9413010C9413010C941301DC
S11300500C9413010C9413010C9413010C941301CC
S11300600C9413010C9413010C9413010C941301BC
S113007000000000005C00000C000C007C287C28C0
S113008058DC68002410480028542840000C000064
S1130090007884008478000054385400107C1000E8
S11300A080400000101010000040000060100C00A0
S11300B038543800487C40004864580044542C00AC
S11300C01C107C005C5424003854240064140C007C
S11300D068542C0048543800004800008048000050
S11300E0102844002828280044281000045408003C
S11300F038445C00781478007C5428003844280084
S11301007C4438007C5444007C140400384474005B
S11301107C107C00447C440020403C007C106C003B
S11301207C4040007C187C0078103C003844380047
S11301307C1408003844B8007C1468004854240037
S1130140047C04007C407C003C603C007C307C00EF
S11301506C106C000C700C0064544C00007C440067
S11301600C106000447C00000804080080808000BB
S113017000040800304878007C48300030484800CB
S113018030487C00306850001078140090A8780043
S11301907C08700050744000808074007C106800FB
S11301A0447C4000781078007808700030483000B3
S11301B0F82810003048F80078100800505828003B
S11301C0083C4800384078003840380078207800EF
S11301D04830480098A07800486858001078840097
S11301E0007C0000847810000804080411241FBE59
S11301F0CFEFD4E0DEBFCDBF12E0A0E0B1E0E8E293
S1130200F3E102C005900D92AC3DB107D9F723E0AC
S1130210ACEDB2E001C01D92A932B207E1F70E9431
S113022078020C9492090C94000008959AE19A952E
S1130230F1F700C09FEF980F943050F48D5F8093D6
S113024000148AE18A95F1F700C0809100140895A2
S113025080E008950E94ED0244E060E080E60E94A0
S1130260C9024FEF61E08BE20E94C90240E060EEF8
S11302708FE00E94C9028EE00E94A002982F907E17
S1130280903489F09038E1F0911126C01F928F9339
S113029085EA91E09F938F930E9458050F900F90E9
S11302A00F900F9008951F928F9382EC91E09F938B
S11302B08F930E9458050F900F900F900F90089500
S11302C01F928F9381EE91E09F938F930E94580524
S11302D00F900F900F900F9008950F931F93CF934B
S11302E0DF93EC010A810F7060E082E30E94B102A7
S11302F061E081E30E94B102602F85E30E94B102B4
S1130300002351F023960A5C16E36991812F0E9421
S1130310B1021F5F1013F9CF81E090E00E94C30285
S11303208EEF91E00E946C05DF91CF911F910F91A8
S11303300895CF93DF93CDB7DEB72B970FB6F8941C
S1130340DEBF0FBECDBFFE0131969BE0DF011D92E3
S11303509A95E9F792E09B838C836D83CF010E9489
S11303606D012B960FB6F894DEBF0FBECDBFDF91A3
S1130370CF91089581E00E9416018093DF0282E00C
S11303800E9416018093E0020895CF9381E00E94B9
S11303901601C82F82E00E941601982F8C2FCF914E
S11303A008950E94C501282FE82F6091E00270E0B3
S11303B0492F50E0461B570BF4E6F49FC001F59F0C
S11303C0900D11240E94E504462F6091DF0270E035
S11303D030E0261B370BF29FC001F39F900D1124D0
S11303E00E94E5049DE1960F9B3320F49DE1940F58
S11303F09B33C8F19EE5960F9D3B20F49EE5940F38
S11304009D3BC8F0542F862F992787FD90959923FB
S11304101CF4919581959109813591057CF0242FE7
S1130420332727FD309533231CF431952195310969
S1130430213531051CF08091DE020895642F772761
S113044067FD709577231CF47195619571096817A0
S113045079072CF481E0E11109C080E008951516B4
S113046024F482E0089584E0089583E008950E94CE
S1130470BA010E94D1018093DE020895811103C064
S113048086B384700895813019F486B38870089512
S1130490823019F486B38170089508951F920F92E3
S11304A00FB60F9211242F933F934F935F936F9343
S11304B07F938F939F93AF93BF93EF93FF9385E2C3
S11304C092E09F938F930E9458050F900F90FF9195
S11304D0EF91BF91AF919F918F917F916F915F91B8
S11304E04F913F912F910F900FBE0F901F90189531
S11304F08FE190E00E94D6040E94DE040E94F40280
S11305000E9421040E94D2038BE392E00E946C05B6
S11305100E9437020E942A0185B7886085BF8BB785
S113052080688BBF78940E94C501C92F0E94C501C1
S11305306C2F0E94990180E090EF0197F1F7F3CFBF
S1130540CF93C82FC49883E00E94C8048C2F0E94C4
S1130550C80480E00E94C804C49A0E94CC04CF91CD
S11305600895CF93DF93D82FC62FC49882E00E94BA
S1130570C8048D2F0E94C8048C2F0E94C804C49AFA
S1130580DF91CF910895C49881E80E94C804C49A69
S113059008951F93CF93DF93182FD62FC42FC49899
S11305A085E00E94C804812F0E94C8048D2F0E94F8
S11305B0C8048C2F0E94C804C49ADF91CF911F9164
S11305C00895C49880EC0E94C80483EC99E00197D4
S11305D0F1F700C00000C49A0895BC9AC49A0E941E
S11305E0BF040E94E102089585B7806885BF80B783
S11305F0806280BF089581E090919501983009F060
S113060080E00895CF93C82F0E94FB0281110CC093
S1130610E0919501EF5FE0939501FF27E7FDF095E9
S1130620EF51FD4FC08304C08FE692E00E946C0539
S1130630CF910895DF92EF92FF920F931F93CF9380
S1130640DF93EC010E94B5040E940C048881998117
S1130650009779F4CE0102969F938F9386EA92E0F5
S11306609F938F930E94A2040F900F900F900F906E
S113067014C09E012E5F3F4F3F932F9302969F938A
S11306808F9380EB92E09F938F930E94A2040F902C
S11306900F900F900F900F900F908E89882399F1EF
S11306A0D12C0F2EFFEBEF2EF2E0FF2EF02D08EBF6
S11306B012E0ED2DF0E0EE0FFF1F8F89988DE80F0B
S11306C0F91F0190F081E02D8789908D892B61F0CD
S11306D03296FF93EF931F930F930E94A2040F90FF
S11306E00F900F900F900BC03296FF93EF93FF92F1
S11306F0EF920E94A2040F900F900F900F90D3944A
S11307008E89D816B0F2D093EA02C093E902DF9141
S1130710CF911F910F91FF90EF90DF900895CF93A9
S1130720DF930E94B5040E940C04C6ECD2E00E9440
S1130730C5011F929F931F928F93DF93CF930E94C3
S1130740A2040E94F50383EC99E00197F1F700C03D
S113075000000E940C0482E00E943E020F900F9061
S11307600F900F900F900F90882309F38091E90266
S11307709091EA020E941A03DF91CF910895CF93DA
S1130780C82F0E94B20463E70E945D0480E20E94C5
S1130790730463E78C2F0E945D048CE30E9473044E
S11307A0CF91089588E091E00E941A0381E00E94AD
S11307B00203E0919501FF27E7FDF095EF51FD4F0E
S11307C080810E94BF03089590EB980F90930010CE
S11307D080931E0308950E94E40380E0E0E0F2E1C8
S11307E010828F5F8038E1F7089580911D0388237C
S11307F02CF0E0E0F2E110828F5FEAF70895982F81
S11308009F70282F22952F70205FE0E0F0E1208375
S1130810908380931D03089580E00E94E40380E0A8
S11308200E94FF0310921D0310921E030895CF939C
S1130830C0E08C2F0E94EB03CF5FC830D1F7CF917B
S1130840089585B7806885BF80B7806280BFE0E087
S1130850F0E18EEA808381EA80838AED808382E1FD
S1130860808388EC808388EA80838FE3808385EDAE
S1130870808380E8808381E8808380E5808389EDBC
S1130880808381E2808380E2808310828BED808389
S113089080E380838DEA8083108284EA808386EA01
S11308A080838FEA808380EB8083108280E1808361
S11308B00E9417040E940C040895CF93C82F862F1A
S11308C00E94FF038C2F0E94E403CF91089580912E
S11308D01D0388232CF0E0E0F2E110828F5FEAF739
S11308E010921D0308958A3029F03091A40131112A
S11308F004C018C00E946704089520E090E0809727
S1130900880F991F880F991FA0E0B2E1FC01E20F44
S1130910F11DE059FF4FE491EC932F5F3091A40156
S11309202317A0F320911D03832F90E0820F911DC4
S1130930803891051CF010921D030895320F3093F6
S11309401D030895CF93DF93CDB7DEB7FE0135962F
S113095061917191AF0186E991E00E949905DF915F
S1130960CF91089580911E030895CF93C0E08C2FFA
S11309700E94EB03CF5FC830D1F7CF91089587B3BE
S1130980806A87BBBC9AC49A6C9A689A6E9A0895D6
S11309908FB9779BFECF08958FB108955F9BFECFEB
S11309A08CB108955D9BFECF8CB9089589B988E117
S11309B08AB98EE880BD80B510BC08956EEC74E0F1
S11309C082ED94E00E940D05089597FB072E16F41E
S11309D0009407D077FD09D00E94F90407FC05D0E4
S11309E03EF4909581959F4F0895709561957F4F42
S11309F00895AA1BBB1B51E107C0AA1FBB1FA61762
S1130A00B70710F0A61BB70B881F991F5A95A9F7B3
S1130A1080959095BC01CD0108950F931F93CF93BA
S1130A20DF93EC018B01009731F46115710519F422
S1130A3080E090E038C06EE070E081E090E00E94D9
S1130A406B07FC010097A1F380E88383011511056E
S1130A5071F01387028781E8838380911F0390914B
S1130A602003892B21F4F0932003E0931F032097A4
S1130A70C9F0D187C08783818260838380912103F9
S1130A8090912203892B71F4F0932203E0932103C4
S1130A908091230390912403892B21F4F093240360
S1130AA0E0932303CF01DF91CF911F910F9108951C
S1130AB0A0E0B0E0EEE5F5E00C946B09FE0135969C
S1130AC061917191AF0180912103909122030E9461
S1130AD09905E2E00C9487090F931F93CF93DF935A
S1130AE0E0912103F0912203238121FF1BC0EC013B
S1130AF000E010E089916091210370912203DB01F1
S1130B001896ED91FC911997882331F00995892B5A
S1130B1089F30FEF1FEFEECF8AE00995892B11F4CB
S1130B20C80102C08FEF9FEFDF91CF911F910F910A
S1130B300895ACE0B0E0EFE9F5E00C945B097C01CA
S1130B406B018A01FC0117821682838181FFBDC17A
S1130B50CE0101964C01F7019381F60193FD859135
S1130B6093FF81916F01882309F4ABC1853239F475
S1130B7093FD859193FF81916F01853229F4B7012B
S1130B8090E00E94CB08E7CF512C312C20E020329A
S1130B90A0F48B3269F030F4803259F0833269F476
S1130BA020612CC08D3239F0803339F4216026C0A5
S1130BB02260246023C0286021C027FD27C030EDB7
S1130BC0380F3A3078F426FF06C0FAE05F9E300D05
S1130BD01124532E13C08AE0389E300D1124332E75
S1130BE020620CC08E3221F426FD6BC1206406C045
S1130BF08C3611F4206802C0883641F4F60193FD66
S1130C00859193FF81916F018111C1CF982F9F7DB1
S1130C109554933028F40C5F1F4FFFE3F9830DC004
S1130C20833631F0833771F0833509F05BC022C01D
S1130C30F801808189830E5F1F4F44244394512C13
S1130C40540115C03801F2E06F0E711CF801A08048
S1130C50B18026FF03C0652D70E002C06FEF7FEF07
S1130C60C5012C870E94C0082C0183012C852F7795
S1130C70222E17C03801F2E06F0E711CF801A0801B
S1130C80B18026FF03C0652D70E002C06FEF7FEFD7
S1130C90C5012C870E94AE082C012C852068222EC9
S1130CA0830123FC1BC0832D90E048165906B0F441
S1130CB0B70180E290E00E94CB083A94F4CFF501AA
S1130CC027FC859127FE81915F01B70190E00E9486
S1130CD0CB0831103A94F1E04F1A510841145104F1
S1130CE071F7E5C0843611F0893639F5F80127FF2C
S1130CF007C060817181828193810C5F1F4F08C09E
S1130D0060817181882777FD8095982F0E5F1F4F32
S1130D102F76B22E97FF09C09095809570956195B6
S1130D207F4F8F4F9F4F2068B22E2AE030E0A401FE
S1130D300E94FD08A82EA81844C0853729F42F7EE8
S1130D40B22E2AE030E025C0F22FF97FBF2E8F3675
S1130D50C1F018F4883579F0B4C0803719F08837B9
S1130D6021F0AFC02F2F2061B22EB4FE0DC08B2D09
S1130D708460B82E09C024FF0AC09F2F9660B92E44
S1130D8006C028E030E005C020E130E002C020E1E8
S1130D9032E0F801B7FE07C06081718182819381DE
S1130DA00C5F1F4F06C06081718180E090E00E5F90
S1130DB01F4FA4010E94FD08A82EA818FB2DFF7741
S1130DC0BF2EB6FE0BC02B2D2E7FA51450F4B4FEFF
S1130DD00AC0B2FC08C02B2D2E7E05C07A2C2B2D08
S1130DE003C07A2C01C0752C24FF0DC0FE01EA0D4E
S1130DF0F11D8081803311F4297E09C022FF06C0D1
S1130E007394739404C0822F867809F0739423FD3D
S1130E1013C020FF06C05A2C731418F4530C57182F
S1130E20732C731468F4B70180E290E02C870E945D
S1130E30CB0873942C85F5CF731410F4371801C0C4
S1130E40312C24FF12C0B70180E390E02C870E946C
S1130E50CB082C8522FF17C021FF03C088E590E052
S1130E6002C088E790E0B7010CC0822F867859F061
S1130E7021FD02C080E201C08BE227FD8DE2B701B3
S1130E8090E00E94CB08A51438F4B70180E390E009
S1130E900E94CB085A94F7CFAA94F401EA0DF11DED
S1130EA08081B70190E00E94CB08A110F5CF3320D8
S1130EB009F451CEB70180E290E00E94CB083A9445
S1130EC0F6CFF7018681978102C08FEF9FEF2C96B2
S1130ED0E2E10C9477090F931F93CF93DF93869FDE
S1130EE08001879F100D969F100D1124C8010E9448
S1130EF08707EC01009729F0A80160E070E00E94E8
S1130F00B908CE01DF91CF911F910F910895CF932E
S1130F10DF938230910510F482E090E0E0912703A2
S1130F20F091280320E030E0A0E0B0E0309739F100
S1130F304081518148175907B8F04817590771F48F
S1130F4082819381109729F013969C938E93129724
S1130F502CC0909328038093270327C021153105C3
S1130F6031F04217530718F0A901DB0101C0EF016A
S1130F709A01BD01DF010280F381E02DD7CF211555
S1130F803105F9F0281B390B2430310580F48A81AE
S1130F909B816115710521F0FB019383828304C059
S1130FA09093280380932703FE01329644C0FE01E8
S1130FB0E20FF31F819391932250310939832883DF
S1130FC03AC02091250330912603232B41F420912C
S1130FD002013091030130932603209325032091CD
S1130FE00001309101012115310541F42DB73EB7BF
S1130FF04091040150910501241B350BE091250318
S1131000F0912603E217F307A0F42E1B3F0B2817D9
S1131010390778F0AC014E5F5F4F2417350748F06D
S11310204E0F5F1F509326034093250381939193A2
S113103002C0E0E0F0E0CF01DF91CF910895CF93BB
S1131040DF93009709F487C0FC0132971382128260
S1131050C0912703D0912803209781F42081318106
S1131060280F391F80912503909126038217930737
S113107079F5F0932603E09325036DC0DE0120E0AB
S113108030E0AE17BF0750F412964D915C91139760
S11310909D014115510509F1DA01F3CFB383A28310
S11310A040815181840F951F8A179B0771F48D919C
S11310B09C911197840F951F0296918380831296B9
S11310C08D919C911397938382832115310529F483
S11310D0F0932803E09327033EC0D9011396FC93B1
S11310E0EE9312974D915D91A40FB51FEA17FB077C
S11310F079F480819181840F951F0296D90111960C
S11311009C938E938281938113969C938E931297D2
S1131110E0E0F0E08A819B81009719F0FE01EC0188
S1131120F9CFCE01029628813981820F931F209135
S11311302503309126032817390769F4309729F4D9
S1131140109228031092270302C013821282D093B4
S11311502603C0932503DF91CF910895FC010590E8
S1131160615070400110D8F7809590958E0F9F1FA5
S11311700895DC0101C06D9341505040E0F708959B
S1131180FC016150704001900110D8F78095909552
S11311908E0F9F1F08950F931F93CF93DF93182FE4
S11311A0092FEB018B8181FD03C08FEF9FEF20C0DE
S11311B082FF10C04E815F812C813D81421753070D
S11311C07CF4E881F9819F012F5F3F4F39832883A5
S11311D0108306C0E885F985812F0995892B29F7A5
S11311E02E813F812F5F3F4F3F832E83812F902F8E
S11311F0DF91CF911F910F910895FA01AA2728300A
S113120051F1203181F1E8946F936E7F6E5F7F4FCF
S11312108F4F9F4FAF4FB1E03ED0B4E03CD0670F4B
S1131220781F891F9A1FA11D680F791F8A1F911D9E
S1131230A11D6A0F711D811D911DA11D20D009F4EE
S113124068943F912AE0269F11243019305D319330
S1131250DEF6CF010895462F4770405D4193B3E019
S11312600FD0C9F7F6CF462F4F70405D4A3318F0C0
S1131270495D31FD4052419302D0A9F7EACFB4E071
S1131280A6959795879577956795BA95C9F7009729
S11312906105710508959B01AC010A2E06945795CA
S11312A0479537952795BA95C9F7620F731F841F21
S11312B0951FA01D08952F923F924F925F926F92B7
S11312C07F928F929F92AF92BF92CF92DF92EF92D2
S11312D0FF920F931F93CF93DF93CDB7DEB7CA1B53
S11312E0DB0B0FB6F894DEBF0FBECDBF09942A887E
S11312F0398848885F846E847D848C849B84AA8426
S1131300B984C884DF80EE80FD800C811B81AA81B2
S1131310B981CE0FD11D0FB6F894DEBF0FBECDBF7D
S10B1320ED010895F894FFCFDC
S1131328000029032000440100004D61696E4D65E9
S11313386E75000000000000000000000000032398
S11313480100007A015F01290108015465737400E2
S11313580000000000000000000000000000000081
S113136800008F035F0143616C69627261746520D8
S11313784D6F7265000000000000000000000008C6
S11313880143616C696272617465000000000000C9
S11313980000000000010601000008015365747490
S11313A8696E677300000000000000000000000080
S11313B800DC020000FF00000002000000007304CB
S11313C800000000040A43414E20697320696E201E
S11313D84E6F726D616C204D6F64653A2025642EE2
S11313E80A000A43414E20697320696E204C6F6FCE
S11313F8706261636B204D6F64653A2025642E0A20
S1131408000A43414E20697320696E20436F6E665B
S11314186967204D6F64653A2025642E0A00536578
S11314286E742061206D657373616765206F7665DE
S1131438722043414E004E6F206E6577206D6573B0
S11314487361676500496E74657272757074206F94
S1131458636375727265642E2E2E00496E6974205A
S1131468636F6D706C65746500537461636B206998
S11314787320656D707479212043616E6E6F7420DA
S11314887265747269657665206461746120004DC3
S1131498656E7520696E64657820737461636B206A
S11314A869732066756C6C2C20706C65617365209B
S11314B8757365206C6573732073756220666F6C31
S11314C8646572732E00524F4F542F2573200A00FF
S11314D825732F2573200A002B202573200A00204A
S11314E8202573200A00583A2025642C20593A20D4
S10F14F8256400646F776E0075700000BE
S9030000FC
