:100000000C94F6000C9415010C9413010C9413013C
:100010000C9413010C9413010C9413010C94130110
:100020000C9413010C9413010C9413010C94130100
:100030000C9413010C9413010C9413010C941301F0
:100040000C9413010C9413010C9413010C941301E0
:100050000C9413010C9413010C9413010C941301D0
:100060000C9413010C9413010C9413010C941301C0
:1000700000000000005C00000C000C007C287C28C4
:1000800058DC68002410480028542840000C000068
:10009000007884008478000054385400107C1000EC
:1000A00080400000101010000040000060100C00A4
:1000B00038543800487C40004864580044542C00B0
:1000C0001C107C005C5424003854240064140C0080
:1000D00068542C0048543800004800008048000054
:1000E0001028440028282800442810000454080040
:1000F00038445C00781478007C5428003844280088
:100100007C4438007C5444007C140400384474005F
:100110007C107C00447C440020403C007C106C003F
:100120007C4040007C187C0078103C00384438004B
:100130007C1408003844B8007C146800485424003B
:10014000047C04007C407C003C603C007C307C00F3
:100150006C106C000C700C0064544C00007C44006B
:100160000C106000447C00000804080080808000BF
:1001700000040800304878007C48300030484800CF
:1001800030487C00306850001078140090A8780047
:100190007C08700050744000808074007C106800FF
:1001A000447C4000781078007808700030483000B7
:1001B000F82810003048F80078100800505828003F
:1001C000083C4800384078003840380078207800F3
:1001D0004830480098A0780048685800107884009B
:1001E000007C0000847810000804080411241FBE5D
:1001F000CFEFD4E0DEBFCDBF11E0A0E0B1E0E8E496
:10020000F7E002C005900D92A031B107D9F721E0C7
:10021000A0E1B1E001C01D92AE34B207E1F70E9447
:1002200016010C94A2030C94000008958FE190E055
:100230000E94FE010E9406020E9425010E945F01A9
:1002400087E091E00E94D701FFCF85B7806885BF26
:1002500080B7806280BF089590EB980F9093001054
:100260008093430108950E942C0180E0E0E0F2E1D8
:1002700010828F5F8038E1F70895982F9F70282FA4
:1002800022952F70205FE0E0F0E12083908380933F
:100290004201089580E00E942C0180E00E943D010F
:1002A00010924201109243010895CF93C0E08C2F29
:1002B0000E943301CF5FC830D1F7CF91089585B741
:1002C000806885BF80B7806280BFE0E0F0E18EEAA1
:1002D000808381EA80838AED808382E1808388EC59
:1002E000808388EA80838FE3808385ED808380E844
:1002F000808381E8808380E5808389ED808381E24B
:10030000808380E2808382E080838BED808380E342
:1003100080838DEA8083108284EA808386EA8083EA
:100320008FEA808380EB8083108280E180830E944B
:1003300055010E944A0108958091420188232CF0C2
:10034000E0E0F2E110828F5FEAF710924201089537
:100350008A3029F030910601311104C018C00E9482
:100360009C01089520E090E08097880F991F880FE6
:10037000991FA0E0B2E1FC01E20FF11DE059FF4F2F
:10038000E491EC932F5F309106012317A0F32091A5
:100390004201832F90E0820F911D803891051CF05F
:1003A000109242010895320F3093420108951F9335
:1003B000CF93DF93EC0110E009C0E12FF0E0E05FA4
:1003C000FE4F808190E00E94A8011F5FFE01019016
:1003D0000020E9F73197EC1BFD0B812F90E08E1781
:1003E0009F0758F3DF91CF911F9108955F9BFECF38
:1003F0008CB108955D9BFECF8CB9089589B988E1D1
:100400008AB98EE880BD80B510BC089566EF71E0B2
:100410008AEF91E00E940D0208950F931F93CF93EE
:10042000DF93EC018B01009731F46115710519F42C
:1004300080E090E038C06EE070E081E090E00E94E3
:100440005802FC010097A1F380E883830115110590
:1004500071F01387028781E8838380914401909132
:100460004501892B21F4F0934501E0934401209745
:10047000C9F0D187C08783818260838380914601E0
:1004800090914701892B71F4F0934701E093460165
:100490008091480190914901892B21F4F093490101
:1004A000E0934801CF01DF91CF911F910F91089503
:1004B0000F931F93CF93DF93869F8001879F100D2B
:1004C000969F100D1124C8010E947402EC01009740
:1004D00029F0A80160E070E00E949B03CE01DF914B
:1004E000CF911F910F910895CF93DF9382309105A3
:1004F00010F482E090E0E0914C01F0914D0120E099
:1005000030E0A0E0B0E0309739F1408151814817E8
:100510005907B8F04817590771F4828193811097F1
:1005200029F013969C938E9312972CC090934D01B3
:1005300080934C0127C02115310531F04217530734
:1005400018F0A901DB0101C0EF019A01BD01DF0133
:100550000280F381E02DD7CF21153105F9F0281B5A
:10056000390B2430310580F48A819B816115710536
:1005700021F0FB019383828304C090934D0180930B
:100580004C01FE01329644C0FE01E20FF31F81933D
:10059000919322503109398328833AC020914A012E
:1005A00030914B01232B41F4209102013091030142
:1005B00030934B0120934A012091000130910101B9
:1005C0002115310541F42DB73EB7409104015091FA
:1005D0000501241B350BE0914A01F0914B01E21714
:1005E000F307A0F42E1B3F0B2817390778F0AC0156
:1005F0004E5F5F4F2417350748F04E0F5F1F509333
:100600004B0140934A018193919302C0E0E0F0E0F6
:10061000CF01DF91CF910895CF93DF93009709F435
:1006200087C0FC01329713821282C0914C01D09195
:100630004D01209781F420813181280F391F80914D
:100640004A0190914B018217930779F5F0934B0182
:10065000E0934A016DC0DE0120E030E0AE17BF0735
:1006600050F412964D915C9113979D0141155105DF
:1006700009F1DA01F3CFB383A28340815181840F62
:10068000951F8A179B0771F48D919C911197840F88
:10069000951F02969183808312968D919C9113975A
:1006A000938382832115310529F4F0934D01E09362
:1006B0004C013EC0D9011396FC93EE9312974D91D5
:1006C0005D91A40FB51FEA17FB0779F48081918132
:1006D000840F951F0296D90111969C938E93828167
:1006E000938113969C938E931297E0E0F0E08A81B9
:1006F0009B81009719F0FE01EC01F9CFCE01029623
:1007000028813981820F931F20914A0130914B013A
:100710002817390769F4309729F410924D01109287
:100720004C0102C013821282D0934B01C0934A0144
:10073000DF91CF910895DC0101C06D93415050408D
:08074000E0F70895F894FFCFE3
:1007480000004E01200004594F4C4F4649534800C1
:00000001FF
