:100000000C94F6000C9415010C9413010C9413013C
:100010000C9413010C9413010C9413010C94130110
:100020000C9413010C9413010C9413010C94130100
:100030000C9413010C9413010C9413010C941301F0
:100040000C9413010C9413010C9413010C941301E0
:100050000C9413010C9413010C9413010C941301D0
:100060000C9413010C9413010C9413010C941301C0
:1000700000000000005C00000C000C007C287C28C4
:1000800058DC68002410480028542840000C000068
:10009000007884008478000054385400107C1000EC
:1000A00080400000101010000040000060100C00A4
:1000B00038543800487C40004864580044542C00B0
:1000C0001C107C005C5424003854240064140C0080
:1000D00068542C0048543800004800008048000054
:1000E0001028440028282800442810000454080040
:1000F00038445C00781478007C5428003844280088
:100100007C4438007C5444007C140400384474005F
:100110007C107C00447C440020403C007C106C003F
:100120007C4040007C187C0078103C00384438004B
:100130007C1408003844B8007C146800485424003B
:10014000047C04007C407C003C603C007C307C00F3
:100150006C106C000C700C0064544C00007C44006B
:100160000C106000447C00000804080080808000BF
:1001700000040800304878007C48300030484800CF
:1001800030487C00306850001078140090A8780047
:100190007C08700050744000808074007C106800FF
:1001A000447C4000781078007808700030483000B7
:1001B000F82810003048F80078100800505828003F
:1001C000083C4800384078003840380078207800F3
:1001D0004830480098A0780048685800107884009B
:1001E000007C0000847810000804080411241FBE5D
:1001F000CFEFD4E0DEBFCDBF12E0A0E0B1E0EEE98A
:10020000F3E102C005900D92AC37B107D9F722E0B7
:10021000ACE7B2E001C01D92A93CB207E1F70E9431
:1002200072020C94CD090C94000008959AE19A95FD
:10023000F1F700C09FEF980F943050F48D5F8093DA
:1002400000148AE18A95F1F700C0809100140895A6
:1002500080E00895CF93DF931F92CDB7DEB70E9461
:1002600020038EE00E94BE02898340E460EE8FE0AE
:100270000E94FA028EE00E94BE0289838981807EFC
:10028000803871F089811F928F9380EB91E09F936A
:100290008F930E9493050F900F900F900F9004C0C2
:1002A0008BEC91E00E94A70544E060E080E60E94AC
:1002B000FA024FEF63E08BE20E94FA020F90DF91A7
:1002C000CF9108951F93CF93DF93EC011A811F7094
:1002D00060E070E082E390E00E94F30260E070E092
:1002E00081E390E00E94F302612F70E085E390E0EB
:1002F0000E94F302BE016D5F7F4F412F86E30E9493
:10030000D00281E090E00E94F302DF91CF911F9133
:100310000895BF92CF92DF92EF92FF920F931F93B7
:10032000CF93DF93CDB7DEB72C970FB6F894DEBF2F
:100330000FBECDBF7C018CE20E94BE028C8785E798
:100340000E94BE028F70B82EA9F08E010C5F1F4F65
:100350000F2EF6E7CF2EF02DC80E0F2EF6E7DF2E6C
:10036000F02D8D2D0E94BE02F80181938F01D39450
:10037000DC10F7CF40E061E08CE20E94FA02BB8221
:100380008BE0FE013196D70101900D928A95E1F73D
:10039000C7012C960FB6F894DEBF0FBECDBFDF911C
:1003A000CF911F910F91FF90EF90DF90CF90BF9072
:1003B000089581E00E94160180937F0282E00E94EE
:1003C00016018093800208951F93CF93DF9381E0FD
:1003D0000E941601182FC0917F02D0E082E00E9497
:1003E0001601E82F2091800230E0612F70E06C1B35
:1003F0007D0B14E6169FC001179F900D1124BE01BE
:100400000E942005C62FF0E0E21BF30B1E9FC001E7
:100410001F9F900D1124B9010E942005962F8C2F4B
:10042000DF91CF911F9108950E94E401292F782F29
:10043000692F9DE1980F9B3320F49DE1920F9B3330
:10044000B0F19EE5980F9D3B20F49EE5920F9D3BF9
:10045000B8F0992787FD909599231CF49195819583
:100460009109813591057CF0422F552747FD509524
:1004700055231CF4519541955109413551051CF006
:1004800080917E020895332727FD309533231CF495
:10049000319521953109281739072CF481E0171679
:1004A0004CF080E00895161624F482E0089584E06C
:1004B000089583E008950E94D9010E941402809358
:1004C0007E020895811103C086B38470089581303F
:1004D00019F486B388700895823019F486B3817058
:1004E00008950895CF93DF93CDB7DEB766970FB623
:1004F000F894DEBF0FBECDBF8BE0E5EAF1E0DE0190
:10050000119601900D928A95E1F78FE190E00E949B
:1005100011050E9419050E9427030E945C040E9495
:100520000D048CED91E00E94A7050E945B020E94E1
:100530002A01CE0101960E94620183EC99E00197A5
:10054000F1F700C00000CE010C960E948901CE0197
:100550000F960E94A70585E50E94030583EC99E0AC
:100560000197F1F700C0000080E00E94030583ECD2
:1005700099E00197F1F700C00000EDCFCF93C82FAD
:1005800088B318BA83E00E9403058C2F0E940305EC
:1005900080E00E940305C49A0E940705CF91089548
:1005A000FF920F931F93CF93DF93C82FF62E172F31
:1005B000042F88B318BA82E00E9403058C2F0E9492
:1005C0000305002349F0CF2DD12F10E089910E941F
:1005D00003051F5F1013FACFC49ADF91CF911F91CB
:1005E0000F91FF90089598B318BA80580E940305A0
:1005F000C49A08951F93CF93DF93182FD62FC42F3B
:1006000088B318BA85E00E940305812F0E94030574
:100610008D2F0E9403058C2F0E940305C49ADF9141
:10062000CF911F91089588B318BA80EC0E940305FA
:1006300083EC99E00197F1F700C00000C49A089597
:10064000BC9AC49A0E94FA040E941303089585B7C5
:10065000806885BF80B7806280BF089581E09091F7
:100660009501983009F080E00895CF93C82F0E943B
:100670002E0381110CC0E0919501EF5FE09395018D
:10068000FF27E7FDF095EF57FD4FC08304C080E1E1
:1006900092E00E94A705CF910895DF92EF92FF921A
:1006A0000F931F93CF93DF93EC010E94F0040E94FD
:1006B000470488819981009779F4CE0102969F932F
:1006C0008F9387E492E09F938F930E94DD040F90B5
:1006D0000F900F900F9014C09E012E5F3F4F3F93DD
:1006E0002F9302969F938F9381E592E09F938F9330
:1006F0000E94DD040F900F900F900F900F900F90BD
:100700008E89882399F1D12C0F2EF0E6EF2EF2E09E
:10071000FF2EF02D09E512E0ED2DF0E0EE0FFF1FAA
:100720008F89988DE80FF91F0190F081E02D87895E
:10073000908D892B61F03296FF93EF931F930F9367
:100740000E94DD040F900F900F900F900BC0329617
:10075000FF93EF93FF92EF920E94DD040F900F90B2
:100760000F900F90D3948E89D816B0F2D0938A024E
:10077000C0938902DF91CF911F910F91FF90EF906D
:10078000DF900895CF93DF930E94F0040E94470406
:10079000C7E6D2E00E94E401292F332727FD3095D8
:1007A0003F939F93282F332727FD30953F938F93B7
:1007B000DF93CF930E94DD040E94300483EC99E024
:1007C0000197F1F700C000000E94470482E00E94F8
:1007D00062020F900F900F900F900F900F90882350
:1007E000C9F28091890290918A020E944D03DF91A3
:1007F000CF910895CF93C82F0E94ED0463E70E9424
:10080000980480E20E94AE0463E78C2F0E94980453
:100810008CE30E94AE04CF91089588E091E00E949D
:100820004D0381E00E943503E0919501FF27E7FD2C
:10083000F095EF57FD4F80810E94FA03089590EBE9
:10084000980F909300108093BE0208950E941F0499
:1008500080E0E0E0F2E110828F5F8038E1F70895F8
:100860008091BD0288232CF0E0E0F2E110828F5FDE
:10087000EAF70895982F9F70282F22952F70205FF8
:10088000E0E0F0E1208390838093BD02089580E052
:100890000E941F0480E00E943A041092BD02109250
:1008A000BE020895CF93C0E08C2F0E942604CF5F34
:1008B000C830D1F7CF91089585B7806885BF80B7DC
:1008C000806280BFE0E0F0E18EEA808381EA80838D
:1008D0008AED808382E1808388EC808388EA80834C
:1008E0008FE3808385ED808380E8808381E8808347
:1008F00080E5808389ED808381E2808380E280834C
:1009000010828BED808380E380838DEA8083108268
:1009100084EA808386EA80838FEA808380EB808309
:10092000108280E180830E9452040E94470408954F
:10093000CF93C82F862F0E943A048C2F0E941F0449
:10094000CF9108958091BD0288232CF0E0E0F2E180
:1009500010828F5FEAF71092BD0208958A3029F065
:100960003091A401311104C018C00E94A20408955E
:1009700020E090E08097880F991F880F991FA0E0D2
:10098000B2E1FC01E20FF11DE059FF4FE491EC935D
:100990002F5F3091A4012317A0F32091BD02832F74
:1009A00090E0820F911D803891051CF01092BD02DD
:1009B0000895320F3093BD020895CF93DF93CDB7E2
:1009C000DEB7FE01359661917191AF0186E991E044
:1009D0000E94D405DF91CF9108958091BE020895C1
:1009E000CF93C0E08C2F0E942604CF5FC830D1F790
:1009F000CF91089587B3806A87BBBC9AC49A6C9ADA
:100A0000689A6E9A08958FB9779BFECF08958FB13B
:100A100008955F9BFECF8CB108955D9BFECF8CB98E
:100A2000089589B988E18AB98EE880BD80B510BC87
:100A3000089569E075E08DE095E00E94480508950D
:100A400097FB072E16F4009407D077FD09D00E947B
:100A5000340507FC05D03EF4909581959F4F08958D
:100A6000709561957F4F0895AA1BBB1B51E107C08C
:100A7000AA1FBB1FA617B70710F0A61BB70B881F2E
:100A8000991F5A95A9F780959095BC01CD010895BD
:100A90000F931F93CF93DF93EC018B01009731F4F9
:100AA0006115710519F480E090E038C06EE070E0E7
:100AB00081E090E00E94A607FC010097A1F380E886
:100AC00083830115110571F01387028781E8838301
:100AD0008091BF029091C002892B21F4F093C00253
:100AE000E093BF022097C9F0D187C08783818260DD
:100AF00083838091C1029091C202892B71F4F0939B
:100B0000C202E093C1028091C3029091C402892B7A
:100B100021F4F093C402E093C302CF01DF91CF919F
:100B20001F910F910895A0E0B0E0E9E9F5E00C9481
:100B3000A609FE01359661917191AF018091C102C4
:100B40009091C2020E94D405E2E00C94C2090F9376
:100B50001F93CF93DF93E091C102F091C2022381F2
:100B600021FF1BC0EC0100E010E089916091C102FF
:100B70007091C202DB011896ED91FC9119978823C0
:100B800031F00995892B89F30FEF1FEFEECF8AE043
:100B90000995892B11F4C80102C08FEF9FEFDF91F7
:100BA000CF911F910F910895ACE0B0E0EAEDF5E030
:100BB0000C9496097C016B018A01FC011782168254
:100BC000838181FFBDC1CE0101964C01F701938164
:100BD000F60193FD859193FF81916F01882309F4BC
:100BE000ABC1853239F493FD859193FF81916F01FB
:100BF000853229F4B70190E00E940609E7CF512C15
:100C0000312C20E02032A0F48B3269F030F48032B5
:100C100059F0833269F420612CC08D3239F0803371
:100C200039F4216026C02260246023C0286021C0DE
:100C300027FD27C030ED380F3A3078F426FF06C084
:100C4000FAE05F9E300D1124532E13C08AE0389EC7
:100C5000300D1124332E20620CC08E3221F426FD7B
:100C60006BC1206406C08C3611F4206802C088363F
:100C700041F4F60193FD859193FF81916F018111FC
:100C8000C1CF982F9F7D9554933028F40C5F1F4F50
:100C9000FFE3F9830DC0833631F0833771F083357C
:100CA00009F05BC022C0F801808189830E5F1F4F6D
:100CB00044244394512C540115C03801F2E06F0EC6
:100CC000711CF801A080B18026FF03C0652D70E083
:100CD00002C06FEF7FEFC5012C870E94FB082C013B
:100CE00083012C852F77222E17C03801F2E06F0E7A
:100CF000711CF801A080B18026FF03C0652D70E053
:100D000002C06FEF7FEFC5012C870E94E9082C011C
:100D10002C852068222E830123FC1BC0832D90E0AC
:100D200048165906B0F4B70180E290E00E94060927
:100D30003A94F4CFF50127FC859127FE81915F015C
:100D4000B70190E00E94060931103A94F1E04F1A81
:100D500051084114510471F7E5C0843611F0893609
:100D600039F5F80127FF07C0608171818281938185
:100D70000C5F1F4F08C060817181882777FD8095C7
:100D8000982F0E5F1F4F2F76B22E97FF09C09095B8
:100D90008095709561957F4F8F4F9F4F2068B22E41
:100DA0002AE030E0A4010E943809A82EA81844C007
:100DB000853729F42F7EB22E2AE030E025C0F22FAD
:100DC000F97FBF2E8F36C1F018F4883579F0B4C0A2
:100DD000803719F0883721F0AFC02F2F2061B22E55
:100DE000B4FE0DC08B2D8460B82E09C024FF0AC04C
:100DF0009F2F9660B92E06C028E030E005C020E1A4
:100E000030E002C020E132E0F801B7FE07C06081A7
:100E10007181828193810C5F1F4F06C06081718157
:100E200080E090E00E5F1F4FA4010E943809A82EB9
:100E3000A818FB2DFF77BF2EB6FE0BC02B2D2E7FE3
:100E4000A51450F4B4FE0AC0B2FC08C02B2D2E7EAF
:100E500005C07A2C2B2D03C07A2C01C0752C24FFE1
:100E60000DC0FE01EA0DF11D8081803311F4297E51
:100E700009C022FF06C07394739404C0822F867841
:100E800009F0739423FD13C020FF06C05A2C73147D
:100E900018F4530C5718732C731468F4B70180E2DC
:100EA00090E02C870E94060973942C85F5CF73146B
:100EB00010F4371801C0312C24FF12C0B70180E3B1
:100EC00090E02C870E9406092C8522FF17C021FF85
:100ED00003C088E590E002C088E790E0B7010CC04D
:100EE000822F867859F021FD02C080E201C08BE29A
:100EF00027FD8DE2B70190E00E940609A51438F4A1
:100F0000B70180E390E00E9406095A94F7CFAA94B3
:100F1000F401EA0DF11D8081B70190E00E940609FD
:100F2000A110F5CF332009F451CEB70180E290E053
:100F30000E9406093A94F6CFF7018681978102C094
:100F40008FEF9FEF2C96E2E10C94B2090F931F9361
:100F5000CF93DF93869F8001879F100D969F100D82
:100F60001124C8010E94C207EC01009729F0A801D2
:100F700060E070E00E94F408CE01DF91CF911F91F4
:100F80000F910895CF93DF938230910510F482E0A2
:100F900090E0E091C702F091C80220E030E0A0E0CC
:100FA000B0E0309739F14081518148175907B8F0C6
:100FB0004817590771F482819381109729F013968D
:100FC0009C938E9312972CC09093C8028093C70273
:100FD00027C02115310531F04217530718F0A90138
:100FE000DB0101C0EF019A01BD01DF010280F38145
:100FF000E02DD7CF21153105F9F0281B390B24300E
:10100000310580F48A819B816115710521F0FB0116
:101010009383828304C09093C8028093C702FE0129
:10102000329644C0FE01E20FF31F81939193225048
:101030003109398328833AC02091C5023091C60214
:10104000232B41F420910201309103013093C60219
:101050002093C50220910001309101012115310535
:1010600041F42DB73EB74091040150910501241B76
:10107000350BE091C502F091C602E217F307A0F428
:101080002E1B3F0B2817390778F0AC014E5F5F4FDE
:101090002417350748F04E0F5F1F5093C602409348
:1010A000C5028193919302C0E0E0F0E0CF01DF91AF
:1010B000CF910895CF93DF93009709F487C0FC0187
:1010C000329713821282C091C702D091C802209732
:1010D00081F420813181280F391F8091C5029091C0
:1010E000C6028217930779F5F093C602E093C50212
:1010F0006DC0DE0120E030E0AE17BF0750F412965D
:101100004D915C9113979D014115510509F1DA014B
:10111000F3CFB383A28340815181840F951F8A1737
:101120009B0771F48D919C911197840F951F0296E6
:101130009183808312968D919C91139793838283E0
:101140002115310529F4F093C802E093C7023EC08F
:10115000D9011396FC93EE9312974D915D91A40FD4
:10116000B51FEA17FB0779F480819181840F951FE1
:101170000296D90111969C938E9382819381139646
:101180009C938E931297E0E0F0E08A819B81009718
:1011900019F0FE01EC01F9CFCE01029628813981C8
:1011A000820F931F2091C5023091C602281739077C
:1011B00069F4309729F41092C8021092C70202C055
:1011C00013821282D093C602C093C502DF91CF91E1
:1011D0000895FC010590615070400110D8F780958A
:1011E00090958E0F9F1F0895DC0101C06D934150B3
:1011F0005040E0F70895FC016150704001900110EB
:10120000D8F7809590958E0F9F1F08950F931F9389
:10121000CF93DF93182F092FEB018B8181FD03C042
:101220008FEF9FEF20C082FF10C04E815F812C8125
:101230003D81421753077CF4E881F9819F012F5FBC
:101240003F4F39832883108306C0E885F985812FB5
:101250000995892B29F72E813F812F5F3F4F3F83CF
:101260002E83812F902FDF91CF911F910F910895A1
:10127000FA01AA27283051F1203181F1E8946F93C7
:101280006E7F6E5F7F4F8F4F9F4FAF4FB1E03ED06D
:10129000B4E03CD0670F781F891F9A1FA11D680F0B
:1012A000791F8A1F911DA11D6A0F711D811D911D3E
:1012B000A11D20D009F468943F912AE0269F1124B3
:1012C0003019305D3193DEF6CF010895462F477017
:1012D000405D4193B3E00FD0C9F7F6CF462F4F7072
:1012E000405D4A3318F0495D31FD4052419302D0D0
:1012F000A9F7EACFB4E0A695979587957795679576
:10130000BA95C9F700976105710508959B01AC0175
:101310000A2E06945795479537952795BA95C9F79C
:10132000620F731F841F951FA01D08952F923F9277
:101330004F925F926F927F928F929F92AF92BF92E5
:10134000CF92DF92EF92FF920F931F93CF93DF9391
:10135000CDB7DEB7CA1BDB0B0FB6F894DEBF0FBEEE
:10136000CDBF09942A88398848885F846E847D843B
:101370008C849B84AA84B984C884DF80EE80FD803D
:101380000C811B81AA81B981CE0FD11D0FB6F894B3
:0E139000DEBF0FBECDBFED010895F894FFCF74
:10139E000000C9022000440100004D61696E4D65D8
:1013AE006E75000000000000000000000000032326
:1013BE000100007A015F0129010801546573740070
:1013CE00000000000000000000000000000000000F
:1013DE000000C2035F0143616C6962726174652033
:1013EE004D6F726500000000000000000000000854
:1013FE000143616C69627261746500000000000057
:10140E00000000000001060100000801536574741D
:10141E00696E67730000000000000000000000000D
:10142E00007C020000FF0000000200000000AE047D
:10143E000000000004000004686569000000000060
:10144E004E6F7420696E206C6F6F706261636B20DB
:10145E006D6F6465202D2025640A00496E206C6F27
:10146E006F706261636B206D6F646500496E6974A5
:10147E0020636F6D706C65746500537461636B20CF
:10148E00697320656D707479212043616E6E6F747F
:10149E0020726574726965766520646174612000DE
:1014AE004D656E7520696E64657820737461636B2B
:1014BE002069732066756C6C2C20706C6561736589
:1014CE0020757365206C6573732073756220666F6B
:1014DE006C646572732E00524F4F542F2573200A81
:1014EE000025732F2573200A002B202573200A0058
:1014FE0020202573200A00583A2025642C20593AC2
:0C150E0020256400646F776E007570008B
:00000001FF
