:100000000C94F6000C9415010C9413010C9413013C
:100010000C9413010C9413010C9413010C94130110
:100020000C9413010C9413010C9413010C94130100
:100030000C9413010C9413010C9413010C941301F0
:100040000C9413010C9413010C9413010C941301E0
:100050000C9413010C9413010C9413010C941301D0
:100060000C9413010C9413010C9413010C941301C0
:1000700000000000005C00000C000C007C287C28C4
:1000800058DC68002410480028542840000C000068
:10009000007884008478000054385400107C1000EC
:1000A00080400000101010000040000060100C00A4
:1000B00038543800487C40004864580044542C00B0
:1000C0001C107C005C5424003854240064140C0080
:1000D00068542C0048543800004800008048000054
:1000E0001028440028282800442810000454080040
:1000F00038445C00781478007C5428003844280088
:100100007C4438007C5444007C140400384474005F
:100110007C107C00447C440020403C007C106C003F
:100120007C4040007C187C0078103C00384438004B
:100130007C1408003844B8007C146800485424003B
:10014000047C04007C407C003C603C007C307C00F3
:100150006C106C000C700C0064544C00007C44006B
:100160000C106000447C00000804080080808000BF
:1001700000040800304878007C48300030484800CF
:1001800030487C00306850001078140090A8780047
:100190007C08700050744000808074007C106800FF
:1001A000447C4000781078007808700030483000B7
:1001B000F82810003048F80078100800505828003F
:1001C000083C4800384078003840380078207800F3
:1001D0004830480098A0780048685800107884009B
:1001E000007C0000847810000804080411241FBE5D
:1001F000CFEFD4E0DEBFCDBF12E0A0E0B1E0E6E299
:10020000F2E102C005900D92A634B107D9F722E0C1
:10021000A6E4B2E001C01D92A339B207E1F70E9443
:10022000C9010C9411090C94000008959AE19A9563
:10023000F1F700C09FEF980F943050F48D5F8093DA
:1002400000148AE18A95F1F700C0809100140895A6
:1002500080E0089581E00E9416018093490282E0C7
:100260000E94160180934A0208951F93CF93DF9353
:1002700081E00E941601182FC0914902D0E082E06F
:100280000E941601E82F20914A0230E0612F70E0B1
:100290006C1B7D0B14E6169FC001179F900D112457
:1002A000BE010E947804C62FF0E0E21BF30B1E9FF4
:1002B000C0011F9F900D1124B9010E947804962F50
:1002C0008C2FDF91CF911F9108950E943501292F26
:1002D000782F692F9DE1980F9B3320F49DE1920FB9
:1002E0009B33B0F19EE5980F9D3B20F49EE5920F65
:1002F0009D3BB8F0992787FD909599231CF4919523
:1003000081959109813591057CF0422F552747FD54
:10031000509555231CF4519541955109413551058E
:100320001CF0809148020895332727FD3095332330
:100330001CF4319521953109281739072CF481E0F7
:1003400017164CF080E00895161624F482E0089504
:1003500084E0089583E008950E942A010E946501C7
:10036000809348020895811103C086B38470089574
:10037000813019F486B388700895823019F486B3F9
:1003800081700895089580914802089580934802ED
:1003900008958FE190E00E9469040E9471040E9418
:1003A000DE010E94C3030E94E20285EA91E00E94FE
:1003B000EB040E94AC010E94F402FDCF85B7806877
:1003C00085BF80B7806280BF089581E090919501DC
:1003D0009F3F09F080E08195089581E0909195011B
:1003E000983009F080E008950E94E50181110DC068
:1003F00090919501E92FFF27E7FDF095E55BFD4F13
:100400008081915090939501089583EB91E00E9433
:10041000EB040895CF93C82F0E94ED0181110CC009
:10042000E0919501EF5FE0939501FF27E7FDF095DF
:10043000E55BFD4FC08304C089ED91E00E94EB04B1
:10044000CF910895DF92EF92FF920F931F93CF9376
:10045000DF93EC010E9457040E94AE0388819981CA
:10046000009779F4CE0102969F938F9380E192E0FA
:100470009F938F930E9444040F900F900F900F90C2
:1004800014C09E012E5F3F4F3F932F9302969F9380
:100490008F938AE192E09F938F930E9444040F9080
:1004A0000F900F900F900F900F908E89882399F1E5
:1004B000D12C0F2EF9E2EF2EF2E0FF2EF02D02E20A
:1004C00012E0ED2DF0E0EE0FFF1F8F89988DE80F01
:1004D000F91F0190F081E02D8789908D892B61F0C3
:1004E0003296FF93EF931F930F930E9444040F9053
:1004F0000F900F900F900BC03296FF93EF93FF92E7
:10050000EF920E9444040F900F900F900F90D3949D
:100510008E89D816B0F2D0935402C0935302DF9163
:10052000CF911F910F91FF90EF90DF900895CF939F
:10053000DF930E9457040E94AE03C0E3D2E00E9402
:100540003501292F332727FD30953F939F93282F7F
:10055000332727FD30953F938F93DF93CF930E94EE
:1005600044040E94970383EC99E00197F1F700C0DF
:1005700000000E94AE0382E00E94B3010F900F9032
:100580000F900F900F900F908823C9F28091530223
:10059000909154020E942202DF91CF910895CF934F
:1005A000C82F0E94540463E70E94FF0380E20E9468
:1005B000150463E78C2F0E94FF038CE30E9415044F
:1005C000CF91089588E091E00E94220281E00E948C
:1005D0000A02E0919501FF27E7FDF095E55BFD4FED
:1005E00080810E94CF020895CF930E946501C82F99
:1005F0000E94C3018C1709F47DC0C330D9F4A091C7
:100600005302B0915402E0919501FF27E7FDF09568
:10061000E55BFD4F56969C918081891708F052C08A
:100620000E94F4018F5F0E940A028DE392E00E9413
:10063000EB0448C0C230A9F4E0919501FF27E7FD23
:10064000F095E55BFD4F8081823008F44FC00E9439
:10065000F40181500E940A0282E492E00E94EB04BD
:1006600045C0C13079F5A0915302B0915402E09198
:100670009501FF27E7FDF095E55BFD4FE081F0E098
:10068000E150F048EE0FFF1F57968D919C915897BF
:10069000E80FF91F0190F081E02D2789308D232B81
:1006A00051F08689882339F0CF010E94220281E02F
:1006B0000E940A021BC0018CF28DE02D3097B1F030
:1006C000099514C0C11112C0E0915302F091540277
:1006D00020813181232B51F00E94F401E0915302DB
:1006E000F0915402808191810E9422028C2F90E02F
:1006F0000E94C601E0919501FF27E7FDF095E55BBB
:10070000FD4F80810E94CF02CF91089590EB980F0A
:10071000909300108093880208950E94860380E0E1
:10072000E0E0F2E110828F5F8038E1F70895809178
:10073000870288232CF0E0E0F2E110828F5FEAF775
:100740000895982F9F70282F22952F70205FE0E04A
:10075000F0E12083908380938702089580E00E94D7
:10076000860380E00E94A103109287021092880203
:100770000895CF93C0E08C2F0E948D03CF5FC830C7
:10078000D1F7CF91089585B7806885BF80B7806223
:1007900080BFE0E0F0E18EEA808381EA80838AED29
:1007A000808382E1808388EC808388EA80838FE382
:1007B000808385ED808380E8808381E8808380E585
:1007C000808389ED808381E2808380E28083108250
:1007D0008BED808380E380838DEA8083108284EABE
:1007E000808386EA80838FEA808380EB8083108217
:1007F00080E180830E94B9030E94AE030895CF93E5
:10080000C82F862F0E94A1038C2F0E948603CF91B0
:1008100008958091870288232CF0E0E0F2E11082B5
:100820008F5FEAF71092870208958A3029F030919D
:10083000A401311104C018C00E940904089520E0E9
:1008400090E08097880F991F880F991FA0E0B2E170
:10085000FC01E20FF11DE059FF4FE491EC932F5F93
:100860003091A4012317A0F320918702832F90E0F9
:10087000820F911D803891051CF010928702089517
:10088000320F309387020895CF93DF93CDB7DEB751
:10089000FE01359661917191AF0186E991E00E9468
:1008A0001805DF91CF910895809188020895CF9324
:1008B000C0E08C2F0E948D03CF5FC830D1F7CF915D
:1008C00008955F9BFECF8CB108955D9BFECF8CB9E0
:1008D000089589B988E18AB98EE880BD80B510BCD9
:1008E000089561E674E085E694E00E94A00408950E
:1008F00097FB072E16F4009407D077FD09D00E94CD
:100900008C0407FC05D03EF4909581959F4F089587
:10091000709561957F4F0895AA1BBB1B51E107C0DD
:10092000AA1FBB1FA617B70710F0A61BB70B881F7F
:10093000991F5A95A9F780959095BC01CD0108950E
:100940000F931F93CF93DF93EC018B01009731F44A
:100950006115710519F480E090E038C06EE070E038
:1009600081E090E00E94EA06FC010097A1F380E894
:1009700083830115110571F01387028781E8838352
:100980008091890290918A02892B21F4F0938A0246
:10099000E09389022097C9F0D187C0878381826064
:1009A000838380918B0290918C02892B71F4F09358
:1009B0008C02E0938B0280918D0290918E02892BA4
:1009C00021F4F0938E02E0938D02CF01DF91CF915D
:1009D0001F910F9108950F931F93CF93DF93E09191
:1009E0008B02F0918C02238121FF1BC0EC0100E0FF
:1009F00010E0899160918B0270918C02DB01189656
:100A0000ED91FC911997882331F00995892B89F391
:100A10000FEF1FEFEECF8AE00995892B11F4C80183
:100A200002C08FEF9FEFDF91CF911F910F9108953B
:100A3000ACE0B0E0EEE1F5E00C94DA087C016B018B
:100A40008A01FC0117821682838181FFBDC1CE011C
:100A500001964C01F7019381F60193FD859193FF77
:100A600081916F01882309F4ABC1853239F493FD7C
:100A7000859193FF81916F01853229F4B70190E050
:100A80000E944A08E7CF512C312C20E02032A0F4FC
:100A90008B3269F030F4803259F0833269F420618E
:100AA0002CC08D3239F0803339F4216026C02260A9
:100AB000246023C0286021C027FD27C030ED380FF7
:100AC0003A3078F426FF06C0FAE05F9E300D11241C
:100AD000532E13C08AE0389E300D1124332E20622D
:100AE0000CC08E3221F426FD6BC1206406C08C360A
:100AF00011F4206802C0883641F4F60193FD859117
:100B000093FF81916F018111C1CF982F9F7D9554E3
:100B1000933028F40C5F1F4FFFE3F9830DC0833639
:100B200031F0833771F0833509F05BC022C0F801E2
:100B3000808189830E5F1F4F44244394512C5401BC
:100B400015C03801F2E06F0E711CF801A080B18071
:100B500026FF03C0652D70E002C06FEF7FEFC50177
:100B60002C870E943F082C0183012C852F77222E91
:100B700017C03801F2E06F0E711CF801A080B1803F
:100B800026FF03C0652D70E002C06FEF7FEFC50147
:100B90002C870E942D082C012C852068222E830191
:100BA00023FC1BC0832D90E048165906B0F4B70112
:100BB00080E290E00E944A083A94F4CFF50127FCC5
:100BC000859127FE81915F01B70190E00E944A085C
:100BD00031103A94F1E04F1A51084114510471F761
:100BE000E5C0843611F0893639F5F80127FF07C0D2
:100BF00060817181828193810C5F1F4F08C0608189
:100C00007181882777FD8095982F0E5F1F4F2F7673
:100C1000B22E97FF09C090958095709561957F4F92
:100C20008F4F9F4F2068B22E2AE030E0A4010E942F
:100C30007C08A82EA81844C0853729F42F7EB22E30
:100C40002AE030E025C0F22FF97FBF2E8F36C1F0A9
:100C500018F4883579F0B4C0803719F0883721F05E
:100C6000AFC02F2F2061B22EB4FE0DC08B2D84603B
:100C7000B82E09C024FF0AC09F2F9660B92E06C067
:100C800028E030E005C020E130E002C020E132E0A1
:100C9000F801B7FE07C060817181828193810C5F8A
:100CA0001F4F06C06081718180E090E00E5F1F4F92
:100CB000A4010E947C08A82EA818FB2DFF77BF2E48
:100CC000B6FE0BC02B2D2E7FA51450F4B4FE0AC027
:100CD000B2FC08C02B2D2E7E05C07A2C2B2D03C014
:100CE0007A2C01C0752C24FF0DC0FE01EA0DF11D08
:100CF0008081803311F4297E09C022FF06C07394DD
:100D0000739404C0822F867809F0739423FD13C076
:100D100020FF06C05A2C731418F4530C5718732C68
:100D2000731468F4B70180E290E02C870E944A08AF
:100D300073942C85F5CF731410F4371801C0312C3F
:100D400024FF12C0B70180E390E02C870E944A087C
:100D50002C8522FF17C021FF03C088E590E002C068
:100D600088E790E0B7010CC0822F867859F021FD0A
:100D700002C080E201C08BE227FD8DE2B70190E066
:100D80000E944A08A51438F4B70180E390E00E945D
:100D90004A085A94F7CFAA94F401EA0DF11D808114
:100DA000B70190E00E944A08A110F5CF332009F462
:100DB00051CEB70180E290E00E944A083A94F6CF03
:100DC000F7018681978102C08FEF9FEF2C96E2E1B9
:100DD0000C94F6080F931F93CF93DF93869F8001A7
:100DE000879F100D969F100D1124C8010E940607C1
:100DF000EC01009729F0A80160E070E00E9438083B
:100E0000CE01DF91CF911F910F910895CF93DF9382
:100E10008230910510F482E090E0E0919102F0912F
:100E2000920220E030E0A0E0B0E0309739F140815C
:100E3000518148175907B8F04817590771F4828152
:100E40009381109729F013969C938E9312972CC040
:100E5000909392028093910227C02115310531F0C1
:100E60004217530718F0A901DB0101C0EF019A01F5
:100E7000BD01DF010280F381E02DD7CF21153105BF
:100E8000F9F0281B390B2430310580F48A819B81CD
:100E90006115710521F0FB019383828304C0909357
:100EA000920280939102FE01329644C0FE01E20F4D
:100EB000F31F8193919322503109398328833AC0DB
:100EC00020918F0230919002232B41F42091020156
:100ED000309103013093900220938F022091000102
:100EE000309101012115310541F42DB73EB74091F4
:100EF000040150910501241B350BE0918F02F09104
:100F00009002E217F307A0F42E1B3F0B28173907B6
:100F100078F0AC014E5F5F4F2417350748F04E0F55
:100F20005F1F5093900240938F028193919302C070
:100F3000E0E0F0E0CF01DF91CF910895CF93DF9310
:100F4000009709F487C0FC01329713821282C09186
:100F50009102D0919202209781F420813181280F53
:100F6000391F80918F02909190028217930779F533
:100F7000F0939002E0938F026DC0DE0120E030E03C
:100F8000AE17BF0750F412964D915C9113979D01D7
:100F90004115510509F1DA01F3CFB383A2834081F2
:100FA0005181840F951F8A179B0771F48D919C9135
:100FB0001197840F951F02969183808312968D91CD
:100FC0009C911397938382832115310529F4F09323
:100FD0009202E09391023EC0D9011396FC93EE93E6
:100FE00012974D915D91A40FB51FEA17FB0779F495
:100FF00080819181840F951F0296D90111969C934F
:101000008E938281938113969C938E931297E0E046
:10101000F0E08A819B81009719F0FE01EC01F9CF85
:10102000CE01029628813981820F931F20918F0271
:10103000309190022817390769F4309729F41092FB
:1010400092021092910202C013821282D0939002F7
:10105000C0938F02DF91CF910895FC0105906150FC
:1010600070400110D8F7809590958E0F9F1F0895BE
:10107000DC0101C06D9341505040E0F70895FC0140
:101080006150704001900110D8F7809590958E0FB7
:101090009F1F08950F931F93CF93DF93182F092F4E
:1010A000EB018B8181FD03C08FEF9FEF20C082FF9A
:1010B00010C04E815F812C813D81421753077CF423
:1010C000E881F9819F012F5F3F4F39832883108387
:1010D00006C0E885F985812F0995892B29F72E818E
:1010E0003F812F5F3F4F3F832E83812F902FDF91D2
:1010F000CF911F910F910895FA01AA27283051F13D
:10110000203181F1E8946F936E7F6E5F7F4F8F4F38
:101110009F4FAF4FB1E03ED0B4E03CD0670F781F97
:10112000891F9A1FA11D680F791F8A1F911DA11D7C
:101130006A0F711D811D911DA11D20D009F46894B5
:101140003F912AE0269F11243019305D3193DEF65D
:10115000CF010895462F4770405D4193B3E00FD013
:10116000C9F7F6CF462F4F70405D4A3318F0495DFE
:1011700031FD4052419302D0A9F7EACFB4E0A695E1
:101180009795879577956795BA95C9F70097610503
:10119000710508959B01AC010A2E06945795479559
:1011A00037952795BA95C9F7620F731F841F951F4E
:1011B000A01D08952F923F924F925F926F927F925F
:1011C0008F929F92AF92BF92CF92DF92EF92FF9257
:1011D0000F931F93CF93DF93CDB7DEB7CA1BDB0B03
:1011E0000FB6F894DEBF0FBECDBF09942A883988A8
:1011F00048885F846E847D848C849B84AA84B984AF
:10120000C884DF80EE80FD800C811B81AA81B981BA
:10121000CE0FD11D0FB6F894DEBF0FBECDBFED01CE
:061220000895F894FFCFD1
:10122600000093022000440100004D61696E4D6587
:101236006E7500000000000000000000000003239F
:101246000100007A015F01290108015465737400E9
:101256000000000000000000000000000000000088
:10126600000097025F0143616C69627261746520D8
:101276004D6F7265000000000000000000000008CD
:101286000143616C696272617465000000000000D0
:101296000000000000010601000008015365747497
:1012A600696E677300000000000000000000000087
:1012B6000046020000FF00000002000000001504C6
:1012C6000000000004496E697420636F6D706C65E0
:1012D600746500537461636B20697320656D707467
:1012E60079212043616E6E6F742072657472696530
:1012F6007665206461746120004D656E7520696EA7
:1013060064657820737461636B2069732066756CFD
:101316006C2C20706C6561736520757365206C6537
:1013260073732073756220666F6C646572732E002A
:10133600524F4F542F2573200A0025732F257320F3
:101346000A002B202573200A0020202573200A007E
:10135600583A2025642C20593A20256400646F777A
:061366006E00757000002E
:00000001FF
