S01200004279676765726E4752312E737265637A
S11300000C9438000C9455000C9455000C94550035
S11300100C9455000C9455000C9455000C94550008
S11300200C9455000C9455000C9455000C945500F8
S11300300C9455000C9455000C9455000C945500E8
S11300400C9455000C9455000C9455000C945500D8
S11300500C9455000C9455000C9455000C945500C8
S11300600C9455000C9455000C9455000C945500B8
S113007011241FBECFEFD4E0DEBFCDBF11E0A0E05E
S1130080B1E0E0E3F4E002C005900D92A630B107C0
S1130090D9F721E0A6E0B1E001C01D92A031B2077A
S11300A0E1F70E9457000C9416020C9400008FE1B3
S11300B090E00E9472000E947A00D09A0E946A0026
S11300C0813619F0823619F0F9CFD89AF7CF8BB36D
S11300D01BBAF4CF5F9BFECF8CB108955D9BFECF1E
S11300E08CB9089589B988E18AB98EE880BD80B554
S11300F010BC08956AE670E08EE690E00E948100EC
S113010008950F931F93CF93DF93EC018B01009716
S113011031F46115710519F480E090E038C06EE0A7
S113012070E081E090E00E94CC00FC010097A1F314
S113013080E883830115110571F01387028781E834
S113014083838091060190910701892B21F4F09318
S11301500701E09306012097C9F0D187C087838106
S1130160826083838091080190910901892B71F445
S1130170F0930901E093080180910A0190910B0129
S1130180892B21F4F0930B01E0930A01CF01DF9155
S1130190CF911F910F9108950F931F93CF93DF93E6
S11301A0869F8001879F100D969F100D1124C80112
S11301B00E94E800EC01009729F0A80160E070E0DB
S11301C00E940F02CE01DF91CF911F910F910895EC
S11301D0CF93DF938230910510F482E090E0E091B8
S11301E00E01F0910F0120E030E0A0E0B0E0309784
S11301F039F14081518148175907B8F04817590718
S113020071F482819381109729F013969C938E93B5
S113021012972CC090930F0180930E0127C02115D3
S1130220310531F04217530718F0A901DB0101C071
S1130230EF019A01BD01DF010280F381E02DD7CFE8
S113024021153105F9F0281B390B2430310580F4D0
S11302508A819B816115710521F0FB01938382835F
S113026004C090930F0180930E01FE01329644C0A6
S1130270FE01E20FF31F81939193225031093983D8
S113028028833AC020910C0130910D01232B41F4B5
S1130290209102013091030130930D0120930C0150
S11302A020910001309101012115310541F42DB750
S11302B03EB74091040150910501241B350BE09198
S11302C00C01F0910D01E217F307A0F42E1B3F0B74
S11302D02817390778F0AC014E5F5F4F24173507B4
S11302E048F04E0F5F1F50930D0140930C01819312
S11302F0919302C0E0E0F0E0CF01DF91CF91089547
S1130300CF93DF93009709F487C0FC0132971382DF
S11303101282C0910E01D0910F01209781F42081A7
S11303203181280F391F80910C0190910D018217A2
S1130330930779F5F0930D01E0930C016DC0DE0194
S113034020E030E0AE17BF0750F412964D915C9157
S113035013979D014115510509F1DA01F3CFB383D8
S1130360A28340815181840F951F8A179B0771F4E2
S11303708D919C911197840F951F02969183808390
S113038012968D919C911397938382832115310545
S113039029F4F0930F01E0930E013EC0D9011396A6
S11303A0FC93EE9312974D915D91A40FB51FEA173C
S11303B0FB0779F480819181840F951F0296D901FE
S11303C011969C938E938281938113969C938E9322
S11303D01297E0E0F0E08A819B81009719F0FE011A
S11303E0EC01F9CFCE01029628813981820F931F47
S11303F020910C0130910D012817390769F43097C9
S113040029F410920F0110920E0102C0138212827D
S1130410D0930D01C0930C01DF91CF910895DC01BD
S113042001C06D9341505040E0F70895F894FFCF18
S109043000001001200091
S9030000FC
