S01200004279676765726E4752312E737265637A
S11300000C94F6000C9415010C9413010C94130138
S11300100C9413010C9413010C9413010C9413010C
S11300200C9413010C9413010C9413010C941301FC
S11300300C9413010C9413010C9413010C941301EC
S11300400C9413010C9413010C9413010C941301DC
S11300500C9413010C9413010C9413010C941301CC
S11300600C9413010C9413010C9413010C941301BC
S113007000000000005C00000C000C007C287C28C0
S113008058DC68002410480028542840000C000064
S1130090007884008478000054385400107C1000E8
S11300A080400000101010000040000060100C00A0
S11300B038543800487C40004864580044542C00AC
S11300C01C107C005C5424003854240064140C007C
S11300D068542C0048543800004800008048000050
S11300E0102844002828280044281000045408003C
S11300F038445C00781478007C5428003844280084
S11301007C4438007C5444007C140400384474005B
S11301107C107C00447C440020403C007C106C003B
S11301207C4040007C187C0078103C003844380047
S11301307C1408003844B8007C1468004854240037
S1130140047C04007C407C003C603C007C307C00EF
S11301506C106C000C700C0064544C00007C440067
S11301600C106000447C00000804080080808000BB
S113017000040800304878007C48300030484800CB
S113018030487C00306850001078140090A8780043
S11301907C08700050744000808074007C106800FB
S11301A0447C4000781078007808700030483000B3
S11301B0F82810003048F80078100800505828003B
S11301C0083C4800384078003840380078207800EF
S11301D04830480098A07800486858001078840097
S11301E0007C0000847810000804080411241FBE59
S11301F0CFEFD4E0DEBFCDBF12E0A0E0B1E0E6E88F
S1130200F3E102C005900D92A637B107D9F722E0B9
S1130210A6E7B2E001C01D92A33CB207E1F70E9439
S113022081020C94C1090C94000008959AE19A95F6
S1130230F1F700C09FEF980F943050F48D5F8093D6
S113024000148AE18A95F1F700C0809100140895A2
S113025080E00895CF93DF931F92CDB7DEB70E945D
S1130260140344E060E080E60E94F0024FEF61E096
S11302708BE20E94F00240E060EE8FE00E94F00208
S11302808EE00E94C702898389811F928F9385EA39
S113029091E09F938F930E9487050F900F900F908A
S11302A00F900F90DF91CF9108950F931F93CF93E9
S11302B0DF93EC010A810F7060E082E30E94D802B0
S11302C061E081E30E94D802602F85E30E94D80296
S11302D0002351F023960A5C16E36991812F0E9452
S11302E0D8021F5F1013F9CF81E090E00E94EA0268
S11302F0DF91CF911F910F9108959F92AF92BF927A
S1130300CF92DF92EF92FF920F931F93CF93DF93DD
S1130310CDB7DEB72C970FB6F894DEBF0FBECDBFB6
S11303207C018CE20E94C7028C878EE00E94C70287
S11303308C7039F181E60E94C702C82E82E60E94C1
S1130340C702D12CDC2CCC24C82A85E60E94C70223
S11303508F70982ED1F08E010C5F1F4F0F2EF6E692
S1130360AF2EF02DA80E0F2EF6E6BF2EF02D8B2DFE
S11303700E94C702F80181938F01B394BA10F7CF9A
S113038004C08CEB91E00E949B0540E061E08CE2AC
S11303900E94F002DA82C9829B828BE0FE013196D0
S11303A0D70101900D928A95E1F7C7012C960FB6FB
S11303B0F894DEBF0FBECDBFDF91CF911F910F9197
S11303C0FF90EF90DF90CF90BF90AF909F900895F3
S11303D081E00E9416018093790282E00E94160156
S11303E080937A0208951F93CF93DF9381E00E9454
S11303F01601182FC0917902D0E082E00E94160104
S1130400E82F20917A0230E0612F70E06C1B7D0BA5
S113041014E6169FC001179F900D1124BE010E947F
S11304201405C62FF0E0E21BF30B1E9FC0011F9FB3
S1130430900D1124B9010E941405962F8C2FDF9181
S1130440CF911F9108950E94F301292F782F692FCE
S11304509DE1980F9B3320F49DE1920F9B33B0F103
S11304609EE5980F9D3B20F49EE5920F9D3BB8F0CE
S1130470992787FD909599231CF49195819591096D
S1130480813591057CF0422F552747FD5095552322
S11304901CF4519541955109413551051CF0809149
S11304A078020895332727FD309533231CF43195C2
S11304B021953109281739072CF481E017164CF0DF
S11304C080E00895161624F482E0089584E00895E7
S11304D083E008950E94E8010E9423028093780239
S11304E00895811103C086B384700895813019F48E
S11304F086B388700895823019F486B381700895A4
S11305000895CF93DF93CDB7DEB766970FB6F8940F
S1130510DEBF0FBECDBF8FE190E00E9405050E94B3
S11305200D050E941B030E9450040E9401048BECE1
S113053091E00E949B050E946A020E942A01CE015A
S113054001962BE0FC0111922A95E9F721E02B8317
S113055027E12C830E945501FFEF2FE781E0F15042
S113056020408040E1F700C000C0CE010C960E94FC
S11305707D018F851F928F9389ED91E09F938F93D7
S11305800E9487050F900F900F900F90FFCFCF938D
S1130590C82FC49883E00E94F7048C2F0E94F704AC
S11305A080E00E94F704C49A0E94FB04CF9108954E
S11305B0CF93DF93D82FC62FC49882E00E94F7040C
S11305C08D2F0E94F7048C2F0E94F704C49ADF91A8
S11305D0CF910895C49881E80E94F704C49A0895BD
S11305E01F93CF93DF93182FD62FC42FC49885E081
S11305F00E94F704812F0E94F7048D2F0E94F704B4
S11306008C2F0E94F704C49ADF91CF911F91089513
S1130610C49880EC0E94F70483EC99E00197F1F709
S113062000C00000C49A0895BC9AC49A0E94EE04C3
S11306300E940803089585B7806885BF80B78062EB
S113064080BF089581E090919501983009F080E091
S11306500895CF93C82F0E94220381110CC0E0910A
S11306609501EF5FE0939501FF27E7FDF095E558CD
S1130670FD4FC08304C089E092E00E949B05CF91A6
S11306800895DF92EF92FF920F931F93CF93DF931E
S1130690EC010E94E4040E943B0488819981009744
S11306A079F4CE0102969F938F9380E492E09F9316
S11306B08F930E94D1040F900F900F900F9014C04D
S11306C09E012E5F3F4F3F932F9302969F938F93EC
S11306D08AE492E09F938F930E94D1040F900F902D
S11306E00F900F900F900F908E89882399F1D12C41
S11306F00F2EF9E5EF2EF2E0FF2EF02D02E512E0C9
S1130700ED2DF0E0EE0FFF1F8F89988DE80FF91F94
S11307100190F081E02D8789908D892B61F03296CC
S1130720FF93EF931F930F930E94D1040F900F90A8
S11307300F900F900BC03296FF93EF93FF92EF92BE
S11307400E94D1040F900F900F900F90D3948E8934
S1130750D816B0F2D0938402C0938302DF91CF9174
S11307601F910F91FF90EF90DF900895CF93DF9347
S11307700E94E4040E943B04C0E6D2E00E94F3011C
S1130780292F332727FD30953F939F93282F332715
S113079027FD30953F938F93DF93CF930E94D1042D
S11307A00E94240483EC99E00197F1F700C0000053
S11307B00E943B0482E00E9471020F900F900F9000
S11307C00F900F900F908823C9F28091830290912B
S11307D084020E944103DF91CF910895CF93C82FE3
S11307E00E94E10463E70E948C0480E20E94A20458
S11307F063E78C2F0E948C048CE30E94A204CF91A7
S1130800089588E091E00E94410381E00E94290359
S1130810E0919501FF27E7FDF095E558FD4F8081B4
S11308200E94EE03089590EB980F9093001080932C
S1130830B80208950E94130480E0E0E0F2E110821F
S11308408F5F8038E1F708958091B70288232CF0F8
S1130850E0E0F2E110828F5FEAF70895982F9F702D
S1130860282F22952F70205FE0E0F0E12083908311
S11308708093B702089580E00E94130480E00E94F0
S11308802E041092B7021092B8020895CF93C0E0DC
S11308908C2F0E941A04CF5FC830D1F7CF910895EE
S11308A085B7806885BF80B7806280BFE0E0F0E1F3
S11308B08EEA808381EA80838AED808382E180836B
S11308C088EC808388EA80838FE3808385ED80834E
S11308D080E8808381E8808380E5808389ED80835C
S11308E081E2808380E2808310828BED808380E3C9
S11308F080838DEA8083108284EA808386EA808301
S11309008FEA808380EB8083108280E180830E9461
S113091046040E943B040895CF93C82F862F0E945B
S11309202E048C2F0E941304CF9108958091B70256
S113093088232CF0E0E0F2E110828F5FEAF7109256
S1130940B70208958A3029F03091A401311104C00E
S113095018C00E949604089520E090E08097880FC4
S1130960991F880F991FA0E0B2E1FC01E20FF11D6D
S1130970E059FF4FE491EC932F5F3091A4012317CA
S1130980A0F32091B702832F90E0820F911D80384D
S113099091051CF01092B7020895320F3093B702FC
S11309A00895CF93DF93CDB7DEB7FE0135966191FD
S11309B07191AF0186E991E00E94C805DF91CF9162
S11309C008958091B8020895CF93C0E08C2F0E94BF
S11309D01A04CF5FC830D1F7CF91089587B3806AE6
S11309E087BBBC9AC49A6C9A689A6E9A08958FB918
S11309F0779BFECF08958FB108955F9BFECF8CB196
S1130A0008955D9BFECF8CB9089589B988E18AB9B0
S1130A108EE880BD80B510BC08956DEF74E081E070
S1130A2095E00E943C05089597FB072E16F4009468
S1130A3007D077FD09D00E94280507FC05D03EF4B5
S1130A40909581959F4F0895709561957F4F089576
S1130A50AA1BBB1B51E107C0AA1FBB1FA617B707E0
S1130A6010F0A61BB70B881F991F5A95A9F78095FC
S1130A709095BC01CD0108950F931F93CF93DF93FD
S1130A80EC018B01009731F46115710519F480E0D4
S1130A9090E038C06EE070E081E090E00E949A0738
S1130AA0FC010097A1F380E883830115110571F01F
S1130AB01387028781E883838091B9029091BA02F7
S1130AC0892B21F4F093BA02E093B9022097C9F07C
S1130AD0D187C0878381826083838091BB02909198
S1130AE0BC02892B71F4F093BC02E093BB028091A9
S1130AF0BD029091BE02892B21F4F093BE02E093D3
S1130B00BD02CF01DF91CF911F910F910895A0E015
S1130B10B0E0EDE8F5E00C949A09FE013596619198
S1130B207191AF018091BB029091BC020E94C805F3
S1130B30E2E00C94B6090F931F93CF93DF93E091F7
S1130B40BB02F091BC02238121FF1BC0EC0100E039
S1130B5010E089916091BB027091BC02DB01189690
S1130B60ED91FC911997882331F00995892B89F32C
S1130B700FEF1FEFEECF8AE00995892B11F4C8011E
S1130B8002C08FEF9FEFDF91CF911F910F910895D6
S1130B90ACE0B0E0EEECF5E00C948A097C016B016A
S1130BA08A01FC0117821682838181FFBDC1CE01B7
S1130BB001964C01F7019381F60193FD859193FF12
S1130BC081916F01882309F4ABC1853239F493FD17
S1130BD0859193FF81916F01853229F4B70190E0EB
S1130BE00E94FA08E7CF512C312C20E02032A0F4E7
S1130BF08B3269F030F4803259F0833269F4206129
S1130C002CC08D3239F0803339F4216026C0226043
S1130C10246023C0286021C027FD27C030ED380F91
S1130C203A3078F426FF06C0FAE05F9E300D1124B6
S1130C30532E13C08AE0389E300D1124332E2062C7
S1130C400CC08E3221F426FD6BC1206406C08C36A4
S1130C5011F4206802C0883641F4F60193FD8591B1
S1130C6093FF81916F018111C1CF982F9F7D95547E
S1130C70933028F40C5F1F4FFFE3F9830DC08336D4
S1130C8031F0833771F0833509F05BC022C0F8017D
S1130C90808189830E5F1F4F44244394512C540157
S1130CA015C03801F2E06F0E711CF801A080B1800C
S1130CB026FF03C0652D70E002C06FEF7FEFC50112
S1130CC02C870E94EF082C0183012C852F77222E7C
S1130CD017C03801F2E06F0E711CF801A080B180DA
S1130CE026FF03C0652D70E002C06FEF7FEFC501E2
S1130CF02C870E94DD082C012C852068222E83017C
S1130D0023FC1BC0832D90E048165906B0F4B701AC
S1130D1080E290E00E94FA083A94F4CFF50127FCAF
S1130D20859127FE81915F01B70190E00E94FA0846
S1130D3031103A94F1E04F1A51084114510471F7FB
S1130D40E5C0843611F0893639F5F80127FF07C06C
S1130D5060817181828193810C5F1F4F08C0608123
S1130D607181882777FD8095982F0E5F1F4F2F760E
S1130D70B22E97FF09C090958095709561957F4F2D
S1130D808F4F9F4F2068B22E2AE030E0A4010E94CA
S1130D902C09A82EA81844C0853729F42F7EB22E1A
S1130DA02AE030E025C0F22FF97FBF2E8F36C1F044
S1130DB018F4883579F0B4C0803719F0883721F0F9
S1130DC0AFC02F2F2061B22EB4FE0DC08B2D8460D6
S1130DD0B82E09C024FF0AC09F2F9660B92E06C002
S1130DE028E030E005C020E130E002C020E132E03C
S1130DF0F801B7FE07C060817181828193810C5F25
S1130E001F4F06C06081718180E090E00E5F1F4F2C
S1130E10A4010E942C09A82EA818FB2DFF77BF2E31
S1130E20B6FE0BC02B2D2E7FA51450F4B4FE0AC0C1
S1130E30B2FC08C02B2D2E7E05C07A2C2B2D03C0AE
S1130E407A2C01C0752C24FF0DC0FE01EA0DF11DA2
S1130E508081803311F4297E09C022FF06C0739477
S1130E60739404C0822F867809F0739423FD13C011
S1130E7020FF06C05A2C731418F4530C5718732C03
S1130E80731468F4B70180E290E02C870E94FA089A
S1130E9073942C85F5CF731410F4371801C0312CDA
S1130EA024FF12C0B70180E390E02C870E94FA0867
S1130EB02C8522FF17C021FF03C088E590E002C003
S1130EC088E790E0B7010CC0822F867859F021FDA5
S1130ED002C080E201C08BE227FD8DE2B70190E001
S1130EE00E94FA08A51438F4B70180E390E00E9448
S1130EF0FA085A94F7CFAA94F401EA0DF11D8081FF
S1130F00B70190E00E94FA08A110F5CF332009F44C
S1130F1051CEB70180E290E00E94FA083A94F6CFED
S1130F20F7018681978102C08FEF9FEF2C96E2E153
S1130F300C94A6090F931F93CF93DF93869F800190
S1130F40879F100D969F100D1124C8010E94B607AB
S1130F50EC01009729F0A80160E070E00E94E80825
S1130F60CE01DF91CF911F910F910895CF93DF931D
S1130F708230910510F482E090E0E091C102F0919A
S1130F80C20220E030E0A0E0B0E0309739F14081C7
S1130F90518148175907B8F04817590771F48281ED
S1130FA09381109729F013969C938E9312972CC0DB
S1130FB09093C2028093C10227C02115310531F0FC
S1130FC04217530718F0A901DB0101C0EF019A0190
S1130FD0BD01DF010280F381E02DD7CF211531055A
S1130FE0F9F0281B390B2430310580F48A819B8168
S1130FF06115710521F0FB019383828304C09093F2
S1131000C2028093C102FE01329644C0FE01E20F87
S1131010F31F8193919322503109398328833AC075
S11310202091BF023091C002232B41F42091020190
S1131030309103013093C0022093BF02209100013C
S1131040309101012115310541F42DB73EB740918E
S1131050040150910501241B350BE091BF02F0916E
S1131060C002E217F307A0F42E1B3F0B2817390721
S113107078F0AC014E5F5F4F2417350748F04E0FF0
S11310805F1F5093C0024093BF028193919302C0AB
S1131090E0E0F0E0CF01DF91CF910895CF93DF93AB
S11310A0009709F487C0FC01329713821282C09121
S11310B0C102D091C202209781F420813181280F8E
S11310C0391F8091BF029091C0028217930779F56E
S11310D0F093C002E093BF026DC0DE0120E030E077
S11310E0AE17BF0750F412964D915C9113979D0172
S11310F04115510509F1DA01F3CFB383A28340818D
S11311005181840F951F8A179B0771F48D919C91CF
S11311101197840F951F02969183808312968D9167
S11311209C911397938382832115310529F4F093BD
S1131130C202E093C1023EC0D9011396FC93EE9320
S113114012974D915D91A40FB51FEA17FB0779F42F
S113115080819181840F951F0296D90111969C93E9
S11311608E938281938113969C938E931297E0E0E1
S1131170F0E08A819B81009719F0FE01EC01F9CF20
S1131180CE01029628813981820F931F2091BF02DC
S11311903091C0022817390769F4309729F4109266
S11311A0C2021092C10202C013821282D093C00202
S11311B0C093BF02DF91CF910895FC010590615067
S11311C070400110D8F7809590958E0F9F1F089559
S11311D0DC0101C06D9341505040E0F70895FC01DB
S11311E06150704001900110D8F7809590958E0F52
S11311F09F1F08950F931F93CF93DF93182F092FE9
S1131200EB018B8181FD03C08FEF9FEF20C082FF34
S113121010C04E815F812C813D81421753077CF4BD
S1131220E881F9819F012F5F3F4F39832883108321
S113123006C0E885F985812F0995892B29F72E8128
S11312403F812F5F3F4F3F832E83812F902FDF916C
S1131250CF911F910F910895FA01AA27283051F1D7
S1131260203181F1E8946F936E7F6E5F7F4F8F4FD3
S11312709F4FAF4FB1E03ED0B4E03CD0670F781F32
S1131280891F9A1FA11D680F791F8A1F911DA11D17
S11312906A0F711D811D911DA11D20D009F4689450
S11312A03F912AE0269F11243019305D3193DEF6F8
S11312B0CF010895462F4770405D4193B3E00FD0AE
S11312C0C9F7F6CF462F4F70405D4A3318F0495D99
S11312D031FD4052419302D0A9F7EACFB4E0A6957C
S11312E09795879577956795BA95C9F7009761059E
S11312F0710508959B01AC010A2E069457954795F4
S113130037952795BA95C9F7620F731F841F951FE8
S1131310A01D08952F923F924F925F926F927F92F9
S11313208F929F92AF92BF92CF92DF92EF92FF92F1
S11313300F931F93CF93DF93CDB7DEB7CA1BDB0B9D
S11313400FB6F894DEBF0FBECDBF09942A88398842
S113135048885F846E847D848C849B84AA84B98449
S1131360C884DF80EE80FD800C811B81AA81B98155
S1131370CE0FD11D0FB6F894DEBF0FBECDBFED0169
S10913800895F894FFCF6C
S11313860000C3022000440100004D61696E4D65F2
S11313966E7500000000000000000000000003233A
S11313A60100007A015F0129010801546573740084
S11313B60000000000000000000000000000000023
S11313C60000B6035F0143616C6962726174652053
S11313D64D6F726500000000000000000000000868
S11313E60143616C6962726174650000000000006B
S11313F60000000000010601000008015365747432
S1131406696E677300000000000000000000000021
S11314160076020000FF0000000200000000A204A3
S1131426000000000443757272656E742043414ED9
S1131436206D6F6465203D2025640A004E6F206E82
S11314466577206D65737361676500496E697420FD
S1131456636F6D706C65746500446174613A202530
S1131466640A00537461636B20697320656D70743C
S113147679212043616E6E6F74207265747269659A
S11314867665206461746120004D656E7520696E11
S113149664657820737461636B2069732066756C68
S11314A66C2C20706C6561736520757365206C65A2
S11314B673732073756220666F6C646572732E0095
S11314C6524F4F542F2573200A0025732F2573205E
S11314D60A002B202573200A0020202573200A00E9
S11314E6583A2025642C20593A20256400646F77E5
S10914F66E007570000099
S9030000FC
